:020000040000FA
:100000000C9462000C948A000C948A000C948A0070
:100010000C948A000C948A000C948A000C948A0038
:100020000C948A000C948A000C948A000C948A0028
:100030000C948A000C948A000C948A000C948A0018
:100040000C94DA020C948A000C944A030C94240356
:100050000C948A000C948A000C948A000C948A00F8
:100060000C948A000C948A000000000023002600F3
:10007000290000000008000201000003040700003E
:1000800000000000000000000000250028002B00F8
:1000900000000000240027002A00040404040404D3
:1000A0000404020202020202030303030303010227
:1000B00004081020408001020408102001020408F6
:1000C0001020A00411241FBECFEFD8E0DEBFCDBFAB
:1000D00021E0A8E2B1E001C01D92A43DB207E1F722
:1000E00011E0A0E0B1E0E6E6FEE002C005900D926E
:1000F000A832B107D9F710E0C2E6D0E004C02197DA
:10010000FE010E943905C136D107C9F70E947C0360
:100110000C9431070C940000CF93DF9390E0FC0126
:10012000E255FF4F249186569F4FFC01849188230E
:10013000C1F090E0880F991FFC01E057FF4FC59177
:10014000D491FC01EA57FF4FA591B4919FB7F89461
:100150003881822F809583238883EC91E22BEC9366
:100160009FBFDF91CF910895AF92BF92CF92DF9260
:10017000EF92FF920F931F93CF93DF936C017B015C
:100180008B01040F151FEB015E01AE18BF08C017ED
:10019000D10759F06991D601ED91FC910190F08160
:1001A000E02DC6010995892B79F7C501DF91CF9123
:1001B0001F910F91FF90EF90DF90CF90BF90AF9085
:1001C000089542E050E068E171E083E391E00C942F
:1001D000B400FC01538D448D252F30E0842F90E036
:1001E000821B930B541710F0CF9608950197089532
:1001F000FC01918D828D981761F0A28DAE0FBF2FFB
:10020000B11D5D968C91928D9F5F9F73928F90E050
:1002100008958FEF9FEF0895FC01918D828D9817BF
:1002200031F0828DE80FF11D858D90E008958FEFFC
:100230009FEF0895FC01918D228D892F90E0805CC5
:100240009F4F821B91098F739927089583E391E053
:100250000E941A0121E0892B09F420E0822F0895E1
:1002600080E090E0892B29F00E94260181110C94F6
:1002700000000895FC01A48DA80FB92FB11DA35A49
:10028000BF4F2C91848D90E001968F739927848FB6
:10029000A689B7892C93A089B1898C9183708064D9
:1002A0008C93938D848D981306C00288F389E02D7A
:1002B00080818F7D80830895EF92FF920F931F932B
:1002C000CF93DF93EC0181E0888F9B8D8C8D981309
:1002D0001AC0E889F989808185FF15C09FB7F89415
:1002E000EE89FF896083E889F98980818370806461
:1002F00080839FBF81E090E0DF91CF911F910F91AC
:10030000FF90EF900895F62E0B8D10E00F5F1F4FBA
:100310000F731127E02E8C8D8E110CC00FB607FCC9
:10032000FACFE889F989808185FFF5CFCE010E9457
:100330003A01F1CFEB8DEC0FFD2FF11DE35AFF4F8A
:10034000F0829FB7F8940B8FEA89FB8980818062E5
:10035000CFCFCF93DF93EC01888D8823B9F0AA89A2
:10036000BB89E889F9898C9185FD03C0808186FD70
:100370000DC00FB607FCF7CF8C9185FFF2CF8081BF
:1003800085FFEDCFCE010E943A01E9CFDF91CF91F9
:10039000089590E0FC01EE58FF4F2491FC01E255D6
:1003A000FF4F3491FC01E656FF4FE491EE23C1F17B
:1003B000222339F02330E9F090F4213001F122308A
:1003C00011F1F0E0EE0FFF1FE859FF4FA591B49136
:1003D000EC91E32381E090E029F580E00895273057
:1003E000A9F02830C9F0243061F7809180008F7D1A
:1003F00003C0809180008F7780938000E2CF84B526
:100400008F7784BDDECF84B58F7DFBCF8091B00028
:100410008F778093B000D5CF8091B0008F7DF9CFDA
:1004200080E090E008950F931F93CF93DF93EC014A
:1004300088819981009759F02A813B8126173707D7
:1004400030F081E0DF91CF911F910F9108958B01E2
:100450006F5F7F4F0E946406009759F099838883ED
:100460001B830A832C813D81232B59F7FC011082C9
:10047000E8CF80E0E7CFEF92FF920F931F93CF93E7
:10048000DF936115710541F480E0DF91CF911F91F9
:100490000F91FF90EF90089541155105B1F07B0148
:1004A000EC010C811D81040F151FB8010E9413027D
:1004B000882351F3288139818C819D81B701820F76
:1004C000931F0E942A071D830C8381E0DECFCF9308
:1004D000DF93EC0188819981009711F00E94DB0580
:1004E000198218821D821C821B821A82DF91CF9191
:1004F0000895EF92FF920F931F93CF93DF93EC0138
:100500007B018A01BA010E94130281110BC0CE0146
:100510000E946702CE01DF91CF911F910F91FF9052
:10052000EF9008951D830C83B701888199810E9403
:100530002A07F0CFEF92FF920F931F93CF93DF9391
:10054000CDB7DEB762970FB6F894DEBF0FBECDBF52
:100550008C01CB01F8011182108213821282158264
:1005600014824AE09E012F5F3F4F7901B9010E943A
:10057000CD04F70101900020E9F73197AF014E1942
:100580005F09B701C8010E94790262960FB6F8941C
:10059000DEBF0FBECDBFDF91CF911F910F91FF90B6
:1005A000EF900895FC0180819181009711F00C94E7
:1005B000DB0508951F920F920FB60F9211242F930F
:1005C0003F938F939F93AF93BF9380912F0190910F
:1005D0003001A0913101B091320130912E0123E020
:1005E000230F2D3758F50196A11DB11D20932E0123
:1005F00080932F0190933001A0933101B093320189
:1006000080912A0190912B01A0912C01B0912D0194
:100610000196A11DB11D80932A0190932B01A093F7
:100620002C01B0932D01BF91AF919F918F913F917C
:100630002F910F900FBE0F901F90189526E8230F53
:100640000296A11DB11DD2CF1F920F920FB60F922D
:1006500011242F933F934F935F936F937F938F93C7
:100660009F93AF93BF93EF93FF9383E391E00E9437
:100670003A01FF91EF91BF91AF919F918F917F913F
:100680006F915F914F913F912F910F900FBE0F90FF
:100690001F9018951F920F920FB60F9211242F934F
:1006A0008F939F93EF93FF93E0914301F091440167
:1006B0008081E0914901F0914A0182FD1BC0908147
:1006C00080914C018F5F8F7320914D01821741F013
:1006D000E0914C01F0E0ED5CFE4F958F80934C0172
:1006E000FF91EF919F918F912F910F900FBE0F90DF
:1006F0001F9018958081F4CFCF93DF93CDB7DEB7ED
:100700002C970FB6F894DEBF0FBECDBF789484B59A
:10071000826084BD84B5816084BD85B5826085BDFD
:1007200085B5816085BD80916E00816080936E008B
:10073000109281008091810082608093810080917D
:10074000810081608093810080918000816080932E
:1007500080008091B10084608093B1008091B000EE
:1007600081608093B00080917A00846080937A00E9
:1007700080917A00826080937A0080917A00816013
:1007800080937A0080917A00806880937A0010923A
:10079000C100E0914301F091440182E08083E09147
:1007A0003F01F09140011082E0914101F09142013E
:1007B0008FEC808310924B01E0914701F09148014A
:1007C00086E08083E0914501F0914601808180615F
:1007D0008083E0914501F0914601808188608083AB
:1007E000E0914501F0914601808180688083E0912D
:1007F0004501F091460180818F7D808388E00E94D1
:100800008C0089E00E948C0000E010E088E00E94EB
:10081000C901892B09F041C088E00E94C901892BD8
:10082000D9F360912801709129016F5F7F4F709318
:10083000290160932801CE0101960E949A02188630
:100840001F821A8619861C861B864CE050E06BE1DD
:1008500071E0CE0107960E9479024D815E81698127
:100860007A81CE0107960E943B02811104C0CE011D
:1008700007960E9467024B855C856F81788583E3CC
:1008800091E00E94B4000E94E100CE0107960E9410
:10089000D202CE0101960E94D20289E00E94C901D3
:1008A000892B09F041C089E00E94C901892BD9F345
:1008B000609128017091290161507109709329019B
:1008C00060932801CE0107960E949A021A8219822B
:1008D0001C821B821E821D824CE050E06BE171E0A5
:1008E000CE0101960E9479024B855C856F817885E7
:1008F000CE0101960E943B02811104C0CE010196F7
:100900000E9467024D815E8169817A8183E391E073
:100910000E94B4000E94E100CE0101960E94D20222
:10092000CE0107960E94D2020115110509F46ECF7F
:100930000E942601882309F469CF0E94000066CF37
:10094000E3E3F1E01382128288EE93E0A0E0B0E0EE
:1009500084839583A683B7838AE091E09183808323
:1009600085EC90E09587848784EC90E09787868774
:1009700080EC90E0918B808B81EC90E0938B828B6C
:1009800082EC90E0958B848B86EC90E0978B868B45
:10099000118E128E138E148E0895BB274A3031F4B7
:1009A000992322F4BDE2909581959F4F0C94D90430
:1009B000BB27FB015527AA27880F991FAA1FA41739
:1009C00010F0A41B83955051B9F7A05DAA3308F02D
:1009D000A95DA193009779F7B111B1931192CB0161
:1009E0000C94F204DC01FC01672F71917723E1F78D
:1009F000329704C07C916D9370836291AE17BF07EC
:100A0000C8F308952F923F924F925F926F927F9218
:100A10008F929F92AF92BF92CF92DF92EF92FF920E
:100A20000F931F93CF93DF93CDB7DEB7CA1BDB0BBA
:100A30000FB6F894DEBF0FBECDBF09942A8839885F
:100A400048885F846E847D848C849B84AA84B98466
:100A5000C884DF80EE80FD800C811B81AA81B98172
:100A6000CE0FD11D0FB6F894DEBF0FBECDBFED0186
:100A70000895EE0FFF1F0590F491E02D09940F9358
:100A80001F93CF93DF938230910510F482E090E0C2
:100A9000E091D201F091D30130E020E0B0E0A0E09D
:100AA000309799F42115310509F44AC0281B390BF8
:100AB00024303105D8F58A819B816115710589F152
:100AC000FB0193838283FE0111C040815181028129
:100AD000138148175907E0F04817590799F4109700
:100AE00061F012960C93129713961C933296CF01D5
:100AF000DF91CF911F910F9108950093D201109330
:100B0000D301F4CF2115310551F04217530738F0C6
:100B1000A901DB019A01BD01DF01F801C1CFEF019D
:100B2000F9CF9093D3018093D201CDCFFE01E20F94
:100B3000F31F819391932250310939832883D7CFB2
:100B40002091D0013091D101232B41F42091020159
:100B5000309103013093D1012093D0012091000105
:100B6000309101012115310541F42DB73EB7409177
:100B7000040150910501241B350BE091D001F09147
:100B8000D101E217F307A0F42E1B3F0B28173907FA
:100B900078F0AC014E5F5F4F2417350748F04E0FD9
:100BA0005F1F5093D1014093D001819391939FCFC8
:100BB000F0E0E0E09CCFCF93DF930097E9F0FC01F9
:100BC000329713821282A091D201B091D301ED012C
:100BD00030E020E01097A1F420813181820F931F33
:100BE0002091D0013091D1012817390709F061C057
:100BF000F093D101E093D001DF91CF910895EA0104
:100C0000CE17DF07E8F54A815B819E01411551054A
:100C1000B1F7E901FB83EA8349915991C40FD51FCC
:100C2000EC17FD0761F4808191810296840F951F76
:100C3000E90199838883828193819B838A83F0E091
:100C4000E0E012968D919C9113970097B9F52D9144
:100C50003C911197CD010296820F931F2091D001F4
:100C60003091D1012817390739F6309751F5109294
:100C7000D3011092D201B093D101A093D001BCCF87
:100C8000D383C28340815181840F951FC817D90730
:100C900061F44E5F5F4F88819981480F591F5183DE
:100CA00040838A819B81938382832115310509F0DA
:100CB000B0CFF093D301E093D2019ECFFD01DC01D0
:100CC000C0CF13821282D7CFB0E0A0E0EAE6F6E010
:100CD0000C9404058C01009751F4CB010E943F0550
:100CE0008C01C801CDB7DEB7E0E10C942005FC0112
:100CF000E60FF71F9C0122503109E217F30708F4B1
:100D00009DC0D901CD91DC911197C617D70798F0F6
:100D1000C530D10530F3CE0104978617970708F345
:100D2000C61BD70B2297C193D1936D937C93CF01B0
:100D30000E94DB05D6CF5B01AC1ABD0A4C018C0EBC
:100D40009D1EA091D201B091D301512C412CF12CC8
:100D5000E12C109731F58091D0019091D101881547
:100D6000990509F05CC04616570608F058C08091F6
:100D7000000190910101009741F48DB79EB7409119
:100D8000040150910501841B950BE817F90708F041
:100D900055C0F093D101E093D001F90171836083D4
:100DA000A0CF8D919C91119712966C9012971396EB
:100DB0007C901397A815B90559F56C0142E0C40E53
:100DC000D11CCA14DB0420F1AC014A195B09DA0119
:100DD0001296159780F06282738251834083D90105
:100DE0006D937C93E114F10471F0D7011396FC9399
:100DF000EE93129776CF22968C0F9D1FF901918367
:100E00008083F301EFCFF093D301E093D20169CF58
:100E10004816590608F42C017D01D3019ACFCB0165
:100E20000E943F057C01009749F0AE01B8010E9485
:100E30002107C8010E94DB05870153CF10E000E0C5
:100E400050CFFB01DC0102C001900D924150504097
:100E5000D8F70895FB01DC0101900D920020E1F725
:100E60000895F894FFCF0000D40180000000000036
:100E70005C01B400E900A9011A01F8000C010D0A97
:0E0E800000546F74616C5F636F756E743A009E
:107E0000112484B714BE81FFF0D085E080938100F7
:107E100082E08093C00088E18093C10086E0809377
:107E2000C20080E18093C4008EE0C9D0259A86E02C
:107E300020E33CEF91E0309385002093840096BBD3
:107E4000B09BFECF1D9AA8958150A9F7CC24DD24C4
:107E500088248394B5E0AB2EA1E19A2EF3E0BF2EE7
:107E6000A2D0813461F49FD0082FAFD0023811F036
:107E7000013811F484E001C083E08DD089C08234E0
:107E800011F484E103C0853419F485E0A6D080C0E4
:107E9000853579F488D0E82EFF2485D0082F10E0AE
:107EA000102F00270E291F29000F111F8ED06801E7
:107EB0006FC0863521F484E090D080E0DECF843638
:107EC00009F040C070D06FD0082F6DD080E0C81688
:107ED00080E7D80618F4F601B7BEE895C0E0D1E017
:107EE00062D089930C17E1F7F0E0CF16F0E7DF06D8
:107EF00018F0F601B7BEE89568D007B600FCFDCFD4
:107F0000A601A0E0B1E02C9130E011968C91119780
:107F100090E0982F8827822B932B1296FA010C0160
:107F200087BEE89511244E5F5F4FF1E0A038BF0790
:107F300051F7F601A7BEE89507B600FCFDCF97BE46
:107F4000E89526C08437B1F42ED02DD0F82E2BD052
:107F50003CD0F601EF2C8F010F5F1F4F84911BD097
:107F6000EA94F801C1F70894C11CD11CFA94CF0C13
:107F7000D11C0EC0853739F428D08EE10CD085E9AC
:107F80000AD08FE07ACF813511F488E018D01DD067
:107F900080E101D065CF982F8091C00085FFFCCF94
:107FA0009093C60008958091C00087FFFCCF809118
:107FB000C00084FD01C0A8958091C6000895E0E648
:107FC000F0E098E1908380830895EDDF803219F02E
:107FD00088E0F5DFFFCF84E1DECF1F93182FE3DFCA
:107FE0001150E9F7F2DF1F91089580E0E8DFEE27F6
:047FF000FF270994CA
:027FFE00040479
:00000001FF
