:10082C00C290D291C292D293C29412080012086B59
:10083C00D290C291C292C293D29412080012084E66
:02084C0080DE4C
:06080000C2957FE87E03B3
:10080600E4FBFAD3EB9FEE6480F8EA648098501517
:10081600E4FCFD0DBD00010CBC03F8BDE9F50BBB06
:0508260000010A80DE64
:01082B0022AA
:10084E00E4F583F582D2927F327E00120806C292C0
:0C085E00120806A3E5826406458370E9D9
:01086A00226B
:10086B00E4F583F582D2957F327E00120806C2959D
:0C087B00120806A3E5826406458370E9BC
:01088700224E
:030000000208886B
:0C088800787FE4F6D8FD75810702082C8B
:00000001FF
