:020000040000FA
:100000000C94DF000C9407010C9407010C94070179
:100010000C9407010C9407010C9407010C94070140
:100020000C9407010C9407010C9407010C94070130
:100030000C9407010C9407010C9407010C94070120
:100040000C9447030C9407010C9415030C94EF02D5
:100050000C9407010C9407010C9407010C94070100
:100060000C9407010C94070100407A10F35A00A089
:10007000724E18090010A5D4E80000E87648170071
:1000800000E40B54020000CA9A3B000000E1F505B1
:10009000000080969800000040420F000000A086FB
:1000A00001000000102700000000E803000000002D
:1000B0006400000000000A000000000001000000D1
:1000C00000002C76D888DC674F0823DFC1DFAE59EB
:1000D000E1B1B796E5E3E453C63AE651997696E87E
:1000E000E6C28426EB898C9B62ED407C6FFCEFBC02
:1000F0009C9F40F2BAA56FA5F490055A2AF75C932D
:100100006B6CF9676DC11BFCE0E40D47FEF520E662
:10011000B500D0ED902E0300943577050080841E45
:10012000080000204E0A000000C80C333333330FA0
:10013000986E12831141EF8D2114893BE65516CF3D
:10014000FEE6DB18D1844B381BF77C1D901DA4BB49
:10015000E424203284725E228100C9F124ECA1E5FE
:100160003D2700000000240027002A0000000000B6
:1001700023002600290000000000250028002B0095
:10018000040404040404040402020202020203033D
:100190000303030301020408102040800102040845
:1001A00010200102040810200000000800020100D5
:1001B0000003040700000000000000009105112466
:1001C0001FBECFEFD8E0DEBFCDBF21E0A4E2B1E09B
:1001D00001C01D92AE3CB207E1F711E0A0E0B1E032
:1001E000EEE7F6E102C005900D92A432B107D9F70F
:1001F00010E0CFEDD0E004C02197FE010E94450938
:10020000CE3DD107C9F70E94D6030C943D0B0C9448
:100210000000E0EBF1E02491ECE9F1E09491E8E8F2
:10022000F1E0E491EE23C9F0222339F0233001F10B
:10023000A8F4213019F1223029F1F0E0EE0FFF1F70
:10024000EA58FE4FA591B4912FB7F894EC91811123
:1002500026C090959E239C932FBF08952730A9F028
:100260002830C9F0243049F7209180002F7D03C049
:10027000209180002F7720938000DFCF24B52F7747
:1002800024BDDBCF24B52F7DFBCF2091B0002F778D
:100290002093B000D2CF2091B0002F7DF9CF9E2BBC
:1002A000DACFAF92BF92CF92DF92EF92FF920F938D
:1002B0001F93CF93DF936C017B018B01040F151FFC
:1002C000EB015E01AE18BF08C017D10759F0699164
:1002D000D601ED91FC910190F081E02DC6010995C8
:1002E000892B79F7C501DF91CF911F910F91FF9075
:1002F000EF90DF90CF90BF90AF900895FC01538DA9
:10030000448D252F30E0842F90E0821B930B5417EF
:1003100010F0CF96089501970895FC01918D828D7C
:10032000981761F0A28DAE0FBF2FB11D5D968C9115
:10033000928D9F5F9F73928F90E008958FEF9FEF54
:100340000895FC01918D828D981731F0828DE80F10
:10035000F11D858D90E008958FEF9FEF0895FC01CA
:10036000918D228D892F90E0805C9F4F821B910997
:100370008F73992708958DE291E00E94AF0121E0EB
:10038000892B09F420E0822F089580E090E0892BEA
:1003900029F00E94BB0181110C9400000895FC011A
:1003A000A48DA80FB92FB11DA35ABF4F2C91848DD6
:1003B00090E001968F739927848FA689B7892C9333
:1003C000A089B1898C91837080648C93938D848D86
:1003D000981306C00288F389E02D80818F7D808389
:1003E0000895EF92FF920F931F93CF93DF93EC0149
:1003F00081E0888F9B8D8C8D98131AC0E889F989CC
:10040000808185FF15C09FB7F894EE89FF896083CE
:10041000E889F98980818370806480839FBF81E04F
:1004200090E0DF91CF911F910F91FF90EF90089591
:10043000F62E0B8D10E00F5F1F4F0F731127E02E6C
:100440008C8D8E110CC00FB607FCFACFE889F989A4
:10045000808185FFF5CFCE010E94CF01F1CFEB8DDA
:10046000EC0FFD2FF11DE35AFF4FF0829FB7F89478
:100470000B8FEA89FB8980818062CFCFCF93DF9396
:10048000EC01888D8823B9F0AA89BB89E889F989AC
:100490008C9185FD03C0808186FD0DC00FB607FCE1
:1004A000F7CF8C9185FFF2CF808185FFEDCFCE0114
:1004B0000E94CF01E9CFDF91CF9108953FB7F89423
:1004C0008091290190912A01A0912B01B0912C01DA
:1004D00026B5A89B05C02F3F19F00196A11DB11D9F
:1004E0003FBFBA2FA92F982F8827BC01CD01620FDB
:1004F000711D811D911D42E0660F771F881F991F96
:100500004A95D1F708958F929F92AF92BF92CF9262
:10051000DF92EF92FF924B015C010E945E026B0141
:100520007C010E945E026C197D098E099F09683E5C
:10053000734081059105A8F321E0821A9108A10872
:10054000B10888EEC80E83E0D81EE11CF11C8114AE
:100550009104A104B10429F7FF90EF90DF90CF90B0
:10056000BF90AF909F908F900895CF93DF93EC0151
:1005700088819981009711F00E94E70919821882F9
:100580001D821C821B821A82DF91CF9108950F93E6
:100590001F93CF93DF93EC0188819981009759F0E5
:1005A0002A813B812617370730F081E0DF91CF9118
:1005B0001F910F9108958B016F5F7F4F0E94700A0A
:1005C000009759F0998388831B830A832C813D818E
:1005D000232B59F7FC011082E8CF80E0E7CF1F9270
:1005E0000F920FB60F9211242F933F934F935F9367
:1005F0006F937F938F939F93AF93BF93EF93FF93EB
:100600008DE291E00E94CF01FF91EF91BF91AF91F8
:100610009F918F917F916F915F914F913F912F911A
:100620000F900FBE0F901F9018951F920F920FB64C
:100630000F9211242F938F939F93EF93FF93E09149
:100640003D01F0913E018081E0914301F091440130
:1006500082FD1BC09081809146018F5F8F73209136
:100660004701821741F0E0914601F0E0E35DFE4F63
:10067000958F80934601FF91EF919F918F912F91DC
:100680000F900FBE0F901F9018958081F4CF1F928E
:100690000F920FB60F9211242F933F938F939F9336
:1006A000AF93BF938091250190912601A0912701DE
:1006B000B09128013091240123E0230F2D3758F504
:1006C0000196A11DB11D20932401809325019093D3
:1006D0002601A0932701B0932801809129019091D0
:1006E0002A01A0912B01B0912C010196A11DB11DF1
:1006F0008093290190932A01A0932B01B0932C01A0
:10070000BF91AF919F918F913F912F910F900FBE0D
:100710000F901F90189526E8230F0296A11DB11D7A
:10072000D2CFCF92DF92EF92FF920F931F93E82FD9
:10073000F92F05C0015011092109310961F190819A
:1007400096239417B9F305C0015011092109310905
:1007500011F1908196239413F7CFC12CD12CE12C69
:10076000F12C0AC08FEFC81AD80AE80AF80A0C154B
:100770001D052E053F0579F080818623841791F3AE
:100780006C2D7D2D8E2D9F2D1F910F91FF90EF9041
:10079000DF90CF90089560E070E080E090E01F91DE
:1007A0000F91FF90EF90DF90CF900895CF93DF935C
:1007B000CDB7DEB7A7970FB6F894DEBF0FBECDBF9B
:1007C000789484B5826084BD84B5816084BD85B52C
:1007D000826085BD85B5816085BD80916E00816038
:1007E00080936E00109281008091810082608093DE
:1007F00081008091810081608093810080918000E0
:100800008160809380008091B10084608093B1000A
:100810008091B00081608093B00080917A00846004
:1008200080937A0080917A00826080937A00809130
:100830007A00816080937A0080917A00806880934A
:100840007A001092C100E0913D01F0913E0182E0FA
:100850008083E0913901F0913A011082E0913B01EF
:10086000F0913C018FEC808310924501E0914101B1
:10087000F091420186E08083E0913F01F0914001D8
:10088000808180618083E0913F01F091400180810F
:1008900088608083E0913F01F09140018081806811
:1008A0008083E0913F01F091400180818F7D8083C2
:1008B000ECE9F1E02491E8E8F1E08491882399F0F3
:1008C00090E0880F991FFC01EE59FE4FA591B4915D
:1008D000FC01EA58FE4F859194918FB7F894EC9102
:1008E000E22BEC938FBF4DE9642E41E0742EF301AF
:1008F000249159E8E52E51E0F52EF70184918823E3
:10090000C9F090E0880F991FFC01EE59FE4FA591A8
:10091000B491FC01EA58FE4F459154913FB7F894C9
:100920009C91822F809598239C93FA019081892332
:1009300080833FBF93E2C92ED12C20E0A22E20E07D
:10094000B22E80E00E94090162E070E080E090E059
:100950000E94830281E00E940901C6010197F1F71C
:1009600080E00E940901F3016491F7018491E82F6E
:10097000F0E0EE0FFF1FE459FE4F8591949100E4E3
:1009800012E42FE030E0462F0E94910361157105BB
:100990008105910529F06F5F7F4F8F4F9F4F9F70AB
:1009A0001BA21AA21DA21CA21FA21EA20E94130813
:1009B00028E23EE74CE05DE30E9450088E010F5FA5
:1009C0001F4F22E044E00E94BE054C01009779F0E1
:1009D000FC0101900020E9F731978F01081B190BEA
:1009E000B801CE0182960E94C702811175C0CE0166
:1009F00082960E94B5021A8219821C821B821E8274
:100A00001D8264E070E0CE0101960E94C702811150
:100A10006BC0CE0101960E94B5028AA09BA08114F2
:100A2000910409F46CC00EA11FA101151105B9F0C4
:100A30008D819E81080F191FB801CE0101960E9479
:100A4000C702882309F45BC029813A818D819E8188
:100A5000B401820F931F0E94360B1E830D830D81FC
:100A60001E810E5F1F4FB801CE0101960E94C70282
:100A700081114AC0CE0101960E94B5024D815E816E
:100A800069817A818DE291E00E94510142E050E05B
:100A900060E271E08DE291E00E94510189819A81CA
:100AA000009711F00E94E7098AA19BA1009711F01D
:100AB0000E94E70968EE73E080E090E00E94830204
:100AC000A114B10409F43DCF0E94BB01882309F4AD
:100AD00038CF0E94000035CF1FA30EA3B4018AA116
:100AE0009BA10E94360B87CF84E090E09E838D838C
:100AF00068E171E089819A810E94360B8ECFCE0128
:100B000001960E94B502ABCF29813A818D819E81E9
:100B10006DE171E0820F931F0E94360B1E830D83DF
:100B2000ADCFEDE2F1E01382128288EE93E0A0E017
:100B3000B0E084839583A683B7838AE091E09183B4
:100B4000808385EC90E09587848784EC90E097879C
:100B5000868780EC90E0918B808B81EC90E0938B8A
:100B6000828B82EC90E0958B848B86EC90E0978B67
:100B7000868B118E128E138E148E0895EF920F9322
:100B80001F93CF93DF93E80134E047FD34E1042E57
:100B9000000C550B57FF03C0519541955109E32EA9
:100BA000022F242FAE010E94DC05CE01DF91CF91F0
:100BB0001F910F91EF900895A9E0B0E0E2EEF5E00B
:100BC0000C9414096A01F22EB02E102FFBE3AF2E05
:100BD000A01608F41BE31F5F012F27E0AE014F5F53
:100BE0005F4F0E943B07BC018981982F997091301B
:100BF00009F43FC09BE2E1FC04C09E2D9170E0FC33
:100C00003AC05E2D5071E82FE87083FF46C084E043
:100C1000911101C083E0EF2DE81B8F1508F0E0E093
:100C2000D6018E2F20E2552351F1992329F0D601C8
:100C30009C93C60101966C0196012D5F3F4FE2FE29
:100C400024C08EE4D6018C9391E411969C93119765
:100C500012968C93D9018E2F90E281111BC0E20F66
:100C6000F32FF11D10828EEF9FEF2996ECE00C948C
:100C700030099DE2C6CF90E2C4CF2D9381508111FF
:100C8000FCCFCE0ED11CE0E0D0CF8EE6D6018C9307
:100C900091E6DBCF9D938150E0CF482F447082FFD7
:100CA0003DC084E0911101C083E08F1510F4EF2D59
:100CB000E81BD6018E2F20E2552309F1992329F054
:100CC000D6019C93C60101966C0196012D5F3F4FA2
:100CD000E2FE1BC089E4D6018C938EE411968C93BE
:100CE000119786E412968C93D9018E2F90E2882377
:100CF00009F4B5CF9D938150FACF2D938150811186
:100D0000FCCFCE0ED11CE0E0D9CF89E6D6018C9382
:100D10008EE611968C93119786E6E4CF9B0177FFC0
:100D200002C030E020E0A1E0B0E0911102C0B0E0EC
:100D3000A0E0F9013196AE0FBF1F8B2C912CBB2088
:100D400009F461C05401EFEFAE1ABE0AAA0DBB1D33
:100D5000FA161B0619F014F04F2D4A1B511188C0CA
:100D6000E3FC59C07601A42FB0E2A1114FC0C40E1C
:100D7000D11C992309F45BC040E0D6011196F6011D
:100D800090836D01552309F448C0012F060F9A8105
:100D9000582F507184FF03C0913309F4015010168D
:100DA0000CF047C0093008F008E0EEE2FE2E5B01CF
:100DB000A01AB10885019194819491082F3F3207C0
:100DC00029F4D601FC92F60131966F016217730780
:100DD00094F1021713077CF5DB01A21BB30BAA24C5
:100DE000A394B12CAC0EBD1EAA0DBB1D11968C9107
:100DF00021503109D601119628153905F4F0F60174
:100E000080836D01DBCFB12CA12CA0CFF701B19372
:100E10007F01A150AACF9111B0CFD601942F50E3FA
:100E200002C05D9391509111FCCFC40ED11C40E0E3
:100E3000ACCF01E0BACF80E3DBCF6217730731F4A8
:100E4000963388F4953311F4552369F0F6018083C5
:100E5000FD01842F90E2811108C0A40FB11D1C92E6
:100E600090E080E002CF81E3F1CF91938150F3CF06
:100E7000911183CF8ACF283008F027E03327DA0199
:100E8000990F311D87FD916000966105710539F458
:100E900032602E5F3D9330E32A95E1F708959F3F3E
:100EA00030F080387105610509F03C5F3C5F3D938F
:100EB000913008F08068911DDF93CF931F930F93BB
:100EC000FF92EF92192F987F9695E92F9695969518
:100ED000E90FFF27EE53FF4F99273327EE24FF2416
:100EE000A701E70105900894079428F4360FE71E40
:100EF000F81E491F511D660F771F881F991F069402
:100F0000A1F70590079428F4E70EF81E491F561F15
:100F1000C11D770F881F991F661F0694A1F70590C2
:100F2000079428F4F80E491F561FC71FD11D880FBC
:100F3000991F661F771F0694A1F70590079420F468
:100F4000490F561FC71FD81F990F661F771F881F8D
:100F50000694A9F784911095177041F0D695C7951E
:100F600057954795F794E7941A95C1F7E8E6F0E0AE
:100F700068941590159135916591959105907FE252
:100F80007395E118F10A430B560BC90BD009C0F752
:100F9000E10CF11E431F561FC91FD01D7EF4703394
:100FA00011F48A95E6CFE894015030F0080F0AF466
:100FB0000027021708F4202F2395022F7A3328F0F8
:100FC00079E37D932A95E9F710C07D932A9589F6F8
:100FD000069497956795379517951794E118F10A38
:100FE000430B560BC90BD00998F023957E9173954E
:100FF0007A3308F070E37C932013B8F77E91706128
:101000007D9330F0839571E37D9370E32A95E1F74A
:101010001124EF90FF900F911F91CF91DF919927AD
:1010200087FD90950895E89409C097FB3EF490954C
:101030008095709561957F4F8F4F9F4F9923A9F0B1
:10104000F92F96E9BB279395F69587957795679540
:10105000B795F111F8CFFAF4BB0F11F460FF1BC084
:101060006F5F7F4F8F4F9F4F16C0882311F096E917
:1010700011C0772321F09EE8872F762F05C06623C5
:1010800071F096E8862F70E060E02AF09A95660F7E
:10109000771F881FDAF7880F9695879597F9089537
:1010A0000E9463080C94D4080E94C60838F00E947D
:1010B000CD0820F0952311F00C94BD080C94C308C2
:1010C00011240C9408090E94E50870F3959FC1F360
:1010D000950F50E0551F629FF001729FBB27F00DE6
:1010E000B11D639FAA27F00DB11DAA1F649F66273B
:1010F000B00DA11D661F829F2227B00DA11D621F8A
:10110000739FB00DA11D621F839FA00D611D221F43
:10111000749F3327A00D611D231F849F600D211D27
:10112000822F762F6A2F11249F5750409AF0F1F0AA
:1011300088234AF0EE0FFF1FBB1F661F771F881F13
:1011400091505040A9F79E3F510580F00C94BD0886
:101150000C9408095F3FE4F3983ED4F386957795A5
:101160006795B795F795E7959F5FC1F7FE2B880FB9
:10117000911D9695879597F9089597F99F6780E84F
:1011800070E060E008959FEF80EC089500240A94D9
:101190001616170618060906089500240A94121652
:1011A0001306140605060895092E0394000C11F485
:1011B000882352F0BB0F40F4BF2B11F460FF04C032
:1011C0006F5F7F4F8F4F9F4F089557FD9058440F8B
:1011D000551F59F05F3F71F04795880F97FB991F96
:1011E00061F09F3F79F08795089512161306140653
:1011F000551FF2CF4695F1DF08C0161617061806E0
:10120000991FF1CF86957105610508940895E894BA
:10121000BB2766277727CB0197F908952F923F9236
:101220004F925F926F927F928F929F92AF92BF92F6
:10123000CF92DF92EF92FF920F931F93CF93DF93A2
:10124000CDB7DEB7CA1BDB0B0FB6F894DEBF0FBEFF
:10125000CDBF09942A88398848885F846E847D844C
:101260008C849B84AA84B984C884DF80EE80FD804E
:101270000C811B81AA81B981CE0FD11D0FB6F894C4
:10128000DEBF0FBECDBFED010895EE0FFF1F05902D
:10129000F491E02D09940F931F93CF93DF93823045
:1012A000910510F482E090E0E091CC01F091CD0145
:1012B00030E020E0B0E0A0E0309799F4211531054E
:1012C00009F44AC0281B390B24303105D8F58A812E
:1012D0009B816115710589F1FB0193838283FE0176
:1012E00011C0408151810281138148175907E0F0F4
:1012F0004817590799F4109761F012960C931297BA
:1013000013961C933296CF01DF91CF911F910F91CD
:1013100008950093CC011093CD01F4CF2115310530
:1013200051F04217530738F0A901DB019A01BD01C2
:10133000DF01F801C1CFEF01F9CF9093CD01809388
:10134000CC01CDCFFE01E20FF31F81939193225088
:10135000310939832883D7CF2091CA013091CB013D
:10136000232B41F420910201309103013093CB01F2
:101370002093CA012091000130910101211531050E
:1013800041F42DB73EB74091040150910501241B53
:10139000350BE091CA01F091CB01E217F307A0F4FD
:1013A0002E1B3F0B2817390778F0AC014E5F5F4FBB
:1013B0002417350748F04E0F5F1F5093CB01409321
:1013C000CA01819391939FCFF0E0E0E09CCFCF934F
:1013D000DF930097E9F0FC01329713821282A0910B
:1013E000CC01B091CD01ED0130E020E01097A1F4E7
:1013F00020813181820F931F2091CA013091CB014E
:101400002817390709F061C0F093CB01E093CA01B6
:10141000DF91CF910895EA01CE17DF07E8F54A8101
:101420005B819E0141155105B1F7E901FB83EA8318
:1014300049915991C40FD51FEC17FD0761F48081C4
:1014400091810296840F951FE90199838883828197
:1014500093819B838A83F0E0E0E012968D919C91CA
:1014600013970097B9F52D913C911197CD010296F4
:10147000820F931F2091CA013091CB0128173907A1
:1014800039F6309751F51092CD011092CC01B093FE
:10149000CB01A093CA01BCCFD383C28340815181C9
:1014A000840F951FC817D90761F44E5F5F4F88817D
:1014B0009981480F591F518340838A819B8193836F
:1014C00082832115310509F0B0CFF093CD01E0936F
:1014D000CC019ECFFD01DC01C0CF13821282D7CF99
:1014E000B0E0A0E0E6E7FAE00C9410098C01009768
:1014F00051F4CB010E944B098C01C801CDB7DEB776
:10150000E0E10C942C09FC01E60FF71F9C0122502E
:101510003109E217F30708F49DC0D901CD91DC91A0
:101520001197C617D70798F0C530D10530F3CE0113
:1015300004978617970708F3C61BD70B2297C1930A
:10154000D1936D937C93CF010E94E709D6CF5B01C5
:10155000AC1ABD0A4C018C0E9D1EA091CC01B0911D
:10156000CD01512C412CF12CE12C109731F58091BB
:10157000CA019091CB018815990509F05CC0461607
:10158000570608F058C08091000190910101009722
:1015900041F48DB79EB74091040150910501841B21
:1015A000950BE817F90708F055C0F093CB01E093CD
:1015B000CA01F90171836083A0CF8D919C9111972D
:1015C00012966C90129713967C901397A815B905F4
:1015D00059F56C0142E0C40ED11CCA14DB0420F1A1
:1015E000AC014A195B09DA011296159780F0628204
:1015F000738251834083D9016D937C93E114F1048C
:1016000071F0D7011396FC93EE93129776CF229642
:101610008C0F9D1FF90191838083F301EFCFF0932D
:10162000CD01E093CC0169CF4816590608F42C018E
:101630007D01D3019ACFCB010E944B097C01009719
:1016400049F0AE01B8010E942D0BC8010E94E709C4
:10165000870153CF10E000E050CFFB01DC0102C056
:1016600001900D9241505040D8F70895FB01DC01E4
:1016700001900D920020E1F70895F894FFCF00004B
:10168000CE01800000000000F10151017E013E0208
:10169000AF018D01A1014469733A00636D000D0A29
:0216A000000048
:107E0000112484B714BE81FFF0D085E080938100F7
:107E100082E08093C00088E18093C10086E0809377
:107E2000C20080E18093C4008EE0C9D0259A86E02C
:107E300020E33CEF91E0309385002093840096BBD3
:107E4000B09BFECF1D9AA8958150A9F7CC24DD24C4
:107E500088248394B5E0AB2EA1E19A2EF3E0BF2EE7
:107E6000A2D0813461F49FD0082FAFD0023811F036
:107E7000013811F484E001C083E08DD089C08234E0
:107E800011F484E103C0853419F485E0A6D080C0E4
:107E9000853579F488D0E82EFF2485D0082F10E0AE
:107EA000102F00270E291F29000F111F8ED06801E7
:107EB0006FC0863521F484E090D080E0DECF843638
:107EC00009F040C070D06FD0082F6DD080E0C81688
:107ED00080E7D80618F4F601B7BEE895C0E0D1E017
:107EE00062D089930C17E1F7F0E0CF16F0E7DF06D8
:107EF00018F0F601B7BEE89568D007B600FCFDCFD4
:107F0000A601A0E0B1E02C9130E011968C91119780
:107F100090E0982F8827822B932B1296FA010C0160
:107F200087BEE89511244E5F5F4FF1E0A038BF0790
:107F300051F7F601A7BEE89507B600FCFDCF97BE46
:107F4000E89526C08437B1F42ED02DD0F82E2BD052
:107F50003CD0F601EF2C8F010F5F1F4F84911BD097
:107F6000EA94F801C1F70894C11CD11CFA94CF0C13
:107F7000D11C0EC0853739F428D08EE10CD085E9AC
:107F80000AD08FE07ACF813511F488E018D01DD067
:107F900080E101D065CF982F8091C00085FFFCCF94
:107FA0009093C60008958091C00087FFFCCF809118
:107FB000C00084FD01C0A8958091C6000895E0E648
:107FC000F0E098E1908380830895EDDF803219F02E
:107FD00088E0F5DFFFCF84E1DECF1F93182FE3DFCA
:107FE0001150E9F7F2DF1F91089580E0E8DFEE27F6
:047FF000FF270994CA
:027FFE00040479
:00000001FF
