:10082A001208C412080012086D1208DD120800121C
:10083A0008A712090F12080012088A1208F61208ED
:06084A000012085080DAE4
:1008C400C290D291C292D293C294C295D2A3C2A42E
:0908D400C2A5D2A0C2A1C2A22259
:1008DD00D290C291C292D293C294C295C2A3D2A415
:0908ED00C2A5D2A0C2A1C2A22240
:1008F600D290C291C292D293C294C295C2A3D2A4FC
:09090600C2A5D2A0C2A1C2A22226
:10090F00D290C291C292D293C294C295D2A3C2A4E2
:09091F00C2A5C2A0D2A1C2A2220D
:040800007FF47E0102
:10080400E4FBFAD3EB9FEE6480F8EA648098501519
:10081400E4FCFD0DBD00010CBC03F8BDE9F50BBB08
:0508240000010A80DE66
:0108290022AC
:10085000E4F583F582D2927F327E00120804C292C0
:0C086000120804A3E5826406458370E9D9
:01086C002269
:10086D00E4F583F582D2957F327E00120804C2959D
:0C087D00120804A3E5826406458370E9BC
:01088900224C
:10088A00E4F583F582D2A57F327E00120804C2A560
:0C089A00120804A3E5826406458370E99F
:0108A600222F
:1008A700E4F583F582D2A27F327E00120804C2A249
:0C08B700120804A3E5826406458370E982
:0108C3002212
:03000000020928CA
:0C092800787FE4F6D8FD75810702082AEC
:00000001FF
