:100A67000A08C0F9A4B0999282F88090021200C8CF
:0C0A7800D3EF6480948040031F80F522BF
:100A4100E4FBFAD3EB9FEE6480F8EA6480985015DA
:100A5100E4FCFD0DBD00010CBC03F8BDE9F50BBBC9
:050A610000010A80DE27
:010A6600226D
:1008CE008F1B8E1A8D198C18E47BE87A03F9F812B7
:1008DE00083C74082FF8E6F5A0D2B07F1E120A78F5
:1008EE00C2B0E47B64FAF9F8AF1BAE1AAD19AC18BE
:1008FE0012083CE47B0AFAF9F812083C74082BF84B
:10090E00E6F5A0D2B17F1E120A78C2B1E47B0AFAD4
:10091E00F9F8AF1BAE1AAD19AC1812083CE47B0AFD
:10092E00FAF9F812083C74082BF8E6F5A0D2B27F5B
:10093E001E120A78C2B2E47B0AFAF9F8AF1BAE1A9D
:10094E00AD19AC1812083C74082BF8E6F5A0D2B31A
:08095E007F1E120A78C2B322C9
:1009F200E4F517F516F515F51420B41830B4FDE535
:100A0200172401F517E43516F516E43515F515E446
:100A12003514F51420B51B30B5FDE51724FFF51785
:100A2200E51634FFF516E51534FFF515E51434FF28
:0F0A3200F514AF17AE16AD15AC141208CE80BA7E
:030000000209668C
:0C096600787FE4F6D8FD75811B0209AD16
:1008000075F008758200EF2FFFEE33FECD33CDCCAF
:1008100033CCC58233C5829BED9AEC99E582984032
:100820000CF582EE9BFEED9AFDEC99FC0FD5F0D60F
:10083000E4CEFBE4CDFAE4CCF9A88222B800C1B939
:100840000059BA002DEC8BF084CFCECDFCE5F0CB77
:10085000F97818EF2FFFEE33FEED33FDEC33FCEBB0
:1008600033FB10D703994004EB99FB0FD8E5E4F96B
:10087000FA227818EF2FFFEE33FEED33FDEC33FC58
:10088000C933C910D7059BE99A4007EC9BFCE99A4C
:10089000F90FD8E0E4C9FAE4CCFB2275F010EF2F91
:1008A000FFEE33FEED33FDCC33CCC833C810D70791
:1008B0009BEC9AE899400AED9BFDEC9AFCE899F8CC
:0E08C0000FD5F0DAE4CDFBE4CCFAE4C8F9225F
:100972000209F2E493A3F8E493A34003F68001F2A0
:1009820008DFF48029E493A3F85407240CC8C33386
:10099200C4540F4420C8834004F456800146F6DF55
:1009A200E4800B0102040810204080900A67E47E74
:1009B200019360BCA3FF543F30E509541FFEE4934A
:1009C200A360010ECF54C025E060A840B8E493A311
:1009D200FAE493A3F8E493A3C8C582C8CAC583CA3C
:1009E200F0A3C8C582C8CAC583CADFE9DEE780BEF4
:010A7700007E
:00000001FF
