:100000000C9435000C945D000C945D000C945D0024
:100010000C945D000C945D000C945D000C945D00EC
:100020000C945D000C945D000C945D000C945D00DC
:100030000C945D000C945D000C945D000C945D00CC
:100040000C941B020C945D000C94E9010C94C30108
:100050000C945D000C945D000C945D000C945D00AC
:100060000C945D000C945D00580311241FBECFEF6B
:10007000D8E0DEBFCDBF11E0A0E0B1E0EAE8F7E0F4
:1000800002C005900D92A631B107D9F721E0A6E193
:10009000B1E001C01D92AE3BB207E1F710E0C5E34D
:1000A000D0E004C02197FE010E94BD03C433D107F4
:1000B000C9F70E9465020C94C3030C940000AF9230
:1000C000BF92CF92DF92EF92FF920F931F93CF9345
:1000D000DF936C017B018B01040F151FEB015E01A7
:1000E000AE18BF08C017D10759F06991D601ED913C
:1000F000FC910190F081E02DC6010995892B79F7DB
:10010000C501DF91CF911F910F91FF90EF90DF908C
:10011000CF90BF90AF900895FC01538D448D252F53
:1001200030E0842F90E0821B930B541710F0CF9691
:10013000089501970895FC01918D828D981761F0C3
:10014000A28DAE0FBF2FB11D5D968C91928D9F5FDA
:100150009F73928F90E008958FEF9FEF0895FC01B9
:10016000918D828D981731F0828DE80FF11D858D6C
:1001700090E008958FEF9FEF0895FC01918D228DFF
:10018000892F90E0805C9F4F821B91098F73992784
:1001900008958FE191E00E94BD0021E0892B09F4D0
:1001A00020E0822F089580E090E0892B29F00E94C2
:1001B000C90081110C9400000895FC01A48DA80FC2
:1001C000B92FB11DA35ABF4F2C91848D90E0019699
:1001D0008F739927848FA689B7892C93A089B189B9
:1001E0008C91837080648C93938D848D981306C05A
:1001F0000288F389E02D80818F7D80830895EF92BE
:10020000FF920F931F93CF93DF93EC0181E0888FD0
:100210009B8D8C8D98131AC0E889F989808185FFA0
:1002200015C09FB7F894EE89FF896083E889F98942
:1002300080818370806480839FBF81E090E0DF9144
:10024000CF911F910F91FF90EF900895F62E0B8D97
:1002500010E00F5F1F4F0F731127E02E8C8D8E1152
:100260000CC00FB607FCFACFE889F989808185FFB9
:10027000F5CFCE010E94DD00F1CFEB8DEC0FFD2F0D
:10028000F11DE35AFF4FF0829FB7F8940B8FEA8974
:10029000FB8980818062CFCFCF93DF93EC01888D83
:1002A0008823B9F0AA89BB89E889F9898C9185FDF1
:1002B00003C0808186FD0DC00FB607FCF7CF8C917F
:1002C00085FFF2CF808185FFEDCFCE010E94DD005A
:1002D000E9CFDF91CF9108953FB7F89480911B014A
:1002E00090911C01A0911D01B0911E0126B5A89B03
:1002F00005C02F3F19F00196A11DB11D3FBFBA2FB8
:10030000A92F982F8827BC01CD01620F711D811D77
:10031000911D42E0660F771F881F991F4A95D1F7FC
:1003200008958F929F92AF92BF92CF92DF92EF92F9
:10033000FF924B015C010E946C016B017C010E94E9
:100340006C016C197D098E099F09683E7340810517
:100350009105A8F321E0821A9108A108B10888EE5E
:10036000C80E83E0D81EE11CF11C81149104A10485
:10037000B10429F7FF90EF90DF90CF90BF90AF903E
:100380009F908F9008951F920F920FB60F92112495
:100390002F933F934F935F936F937F938F939F938D
:1003A000AF93BF93EF93FF938FE191E00E94DD0045
:1003B000FF91EF91BF91AF919F918F917F916F913D
:1003C0005F914F913F912F910F900FBE0F901F9013
:1003D00018951F920F920FB60F9211242F938F939F
:1003E0009F93EF93FF93E0912F01F0913001808173
:1003F000E0913501F091360182FD1BC09081809122
:1004000038018F5F8F7320913901821741F0E0919D
:100410003801F0E0E15EFE4F958F80933801FF9147
:10042000EF919F918F912F910F900FBE0F901F9082
:1004300018958081F4CF1F920F920FB60F9211245E
:100440002F933F938F939F93AF93BF938091170107
:1004500090911801A0911901B0911A0130911601E3
:1004600023E0230F2D3758F50196A11DB11D2093D0
:1004700016018093170190931801A0931901B0936E
:100480001A0180911B0190911C01A0911D01B09156
:100490001E010196A11DB11D80931B0190931C01AB
:1004A000A0931D01B0931E01BF91AF919F918F91B9
:1004B0003F912F910F900FBE0F901F90189526E837
:1004C000230F0296A11DB11DD2CFCF93DF93CDB7DD
:1004D000DEB7A1970FB6F894DEBF0FBECDBF7894FC
:1004E00084B5826084BD84B5816084BD85B5826039
:1004F00085BD85B5816085BD80916E0081608093EA
:100500006E00109281008091810082608093810052
:100510008091810081608093810080918000816062
:10052000809380008091B10084608093B1008091BD
:10053000B00081608093B00080917A0084608093E5
:100540007A0080917A00826080937A0080917A00AC
:10055000816080937A0080917A00806880937A002D
:100560001092C100E0912F01F091300182E0808370
:10057000E0912B01F0912C011082E0912D01F0917E
:100580002E018FEC808310923701E0913301F091BE
:10059000340186E08083E0913101F0913201808165
:1005A00080618083E0913101F09132018081886027
:1005B0008083E0913101F0913201808180688083F5
:1005C000E0913101F091320180818F7D808310E0D4
:1005D00000E068EE600FC8010E948D036AE070E0E1
:1005E00080E090E00E9491010F5F1F4F0B301105DA
:1005F00081F78AE0882E912CA12CB12C90E0E92E75
:1006000090E0F92E8091BC019091BD010E9485037C
:10061000282F30E050E040E019A28E010F5D1F4FFF
:10062000CA01B901A50194010E949B03605DF80114
:1006300062938F01211531054105510589F73097E6
:1006400061F001900020E9F73197AF01401B510B99
:10065000B8018FE191E00E945F0042E050E062E16A
:1006600071E08FE191E00E945F0068EE73E080E04E
:1006700090E00E9491018091BC019091BD01019692
:100680008B30910581F09093BD018093BC01E11402
:10069000F10409F4B7CF0E94C900882309F4B2CF4E
:1006A0000E940000AFCF1092BD011092BC01EFCFAD
:1006B000EFE1F1E01382128288EE93E0A0E0B0E077
:1006C00084839583A683B78384E091E091838083BC
:1006D00085EC90E09587848784EC90E09787868707
:1006E00080EC90E0918B808B81EC90E0938B828BFF
:1006F00082EC90E0958B848B86EC90E0978B868BD8
:10070000118E128E138E148E0895F999FECF92BD1C
:1007100081BDF89A992780B50895262FF999FECFC3
:100720001FBA92BD81BD20BD0FB6F894FA9AF99A0E
:100730000FBE01960895A1E21A2EAA1BBB1BFD0154
:100740000DC0AA1FBB1FEE1FFF1FA217B307E407B0
:10075000F50720F0A21BB30BE40BF50B661F771F08
:10076000881F991F1A9469F76095709580959095E8
:100770009B01AC01BD01CF010895EE0FFF1F059055
:0A078000F491E02D0994F894FFCFE6
:10078A0000000000FF005F008C004C01BD009B00D0
:06079A00AF000D0A000093
:00000001FF
