:0C0A70000A08C0F9A4B0999282F88090A6
:0C0A7D00D3EF6480948040031F80F522BA
:100A4A00E4FBFAD3EB9FEE6480F8EA6480985015D1
:100A5A00E4FCFD0DBD00010CBC03F8BDE9F50BBBC0
:050A6A0000010A80DE1E
:010A6F002264
:1008DF008F198E188D178C16E47BE87A03F9F812AE
:1008EF00083C74082FF8E6F5A0D2B07F1E120A7DDF
:1008FF00C2B0E47B64FAF9F8AF19AE18AD17AC16B5
:10090F0012083CE47B0AFAF9F812083C74082BF839
:10091F00E6F5A0D2B17F1E120A7DC2B1E47B0AFABE
:10092F00F9F8AF19AE18AD17AC1612083CE47B0AF4
:10093F00FAF9F812083C74082BF8E6F5A0D2B27F4A
:10094F001E120A7DC2B2E47B0AFAF9F8AF19AE188B
:10095F00AD17AC1612083C74082BF8E6F5A0D2B30D
:08096F007F1E120A7DC2B322B3
:100A0300E4F515F514F513F512E5152401F515E4D0
:100A13003514F514E43513F513E43512F512AF1557
:100A2300AE14AD13FC1208DFE47F0F7E27FDFCAB91
:100A330015AA14A913A812C31208CE70CCF515F584
:070A430014F513F51280C247
:030000000209777B
:0C097700787FE4F6D8FD7581190209BEF6
:1008000075F008758200EF2FFFEE33FECD33CDCCAF
:1008100033CCC58233C5829BED9AEC99E582984032
:100820000CF582EE9BFEED9AFDEC99FC0FD5F0D60F
:10083000E4CEFBE4CDFAE4CCF9A88222B800C1B939
:100840000059BA002DEC8BF084CFCECDFCE5F0CB77
:10085000F97818EF2FFFEE33FEED33FDEC33FCEBB0
:1008600033FB10D703994004EB99FB0FD8E5E4F96B
:10087000FA227818EF2FFFEE33FEED33FDEC33FC58
:10088000C933C910D7059BE99A4007EC9BFCE99A4C
:10089000F90FD8E0E4C9FAE4CCFB2275F010EF2F91
:1008A000FFEE33FEED33FDCC33CCC833C810D70791
:1008B0009BEC9AE899400AED9BFDEC9AFCE899F8CC
:0E08C0000FD5F0DAE4CDFBE4CCFAE4C8F9225F
:1008CE00EB9FF5F0EA9E42F0E99D42F0E89C45F080
:0108DE0022F7
:10098300020A03E493A3F8E493A34003F68001F27D
:1009930008DFF48029E493A3F85407240CC8C33375
:1009A300C4540F4420C8834004F456800146F6DF44
:1009B300E4800B0102040810204080900A70E47E5A
:1009C300019360BCA3FF543F30E509541FFEE49339
:1009D300A360010ECF54C025E060A840B8E493A300
:1009E300FAE493A3F8E493A3C8C582C8CAC583CA2B
:1009F300F0A3C8C582C8CAC583CADFE9DEE780BEE3
:010A7C000079
:00000001FF
