:10080000E4F508F509F5A0F5B0F508F50963A0FFD2
:100810007F647E001208500509E50970020508D3BF
:100820009405E5086480948040E3E4F508F509D375
:10083000E5099405E5086480948050C463B0FF7FA7
:10084000647E001208500509E50970E3050880DFA1
:10085000E4FBFAD3EB9FEE6480F8EA6480985015CD
:10086000E4FCFD0DBD00010CBC03F8BDE9F50BBBBC
:0508700000010A80DE1A
:010875002260
:030000000208767D
:0C087600787FE4F6D8FD758109020800C7
:00000001FF
