:100000000C945D000C9485000C9485000C94850084
:100010000C9485000C9485000C9485000C9485004C
:100020000C9485000C9485000C9485000C9485003C
:100030000C9485000C9485000C9485000C9485002C
:100040000C947B030C9485000C9485000C94850023
:100050000C9485000C9485000C9485000C9485000C
:100060000C9485000C9485000000000024002700FB
:100070002A0000000000250028002B0004040404CE
:100080000404040402020202020203030303030342
:10009000010204081020408001020408102001021F
:1000A00004081020000000080002010000030407FB
:1000B0000000000000000000D90411241FBECFEF93
:1000C000D8E0DEBFCDBF21E0AAE1B1E001C01D92C2
:1000D000AF33B207E1F711E0A0E0B1E0EAEBFEE0F8
:1000E00002C005900D92AA31B107D9F710E0CDE515
:1000F000D0E004C02197FE010E946305CC35D107F2
:10010000C9F70E94C5030C945B070C940000AF92E2
:10011000BF92CF92DF92EF92FF920F931F93CF93F4
:10012000DF936C017B018B01040F151FEB015E0156
:10013000AE18BF08C017D10759F06991D601ED91EB
:10014000FC910190F081E02DC6010995892B79F78A
:10015000C501DF91CF911F910F91FF90EF90DF903C
:10016000CF90BF90AF90089590E0FC01EC55FF4F09
:100170002491FC01E057FF4F3491FC01E458FF4FFC
:10018000E491EE23C9F0222339F0233001F1A8F4E1
:10019000213019F1223029F1F0E0EE0FFF1FEE5867
:1001A000FF4FA591B4918FB7F894EC91611126C0DF
:1001B00030953E233C938FBF08952730A9F0283017
:1001C000C9F0243049F7809180008F7D03C0809171
:1001D00080008F7780938000DFCF84B58F7784BDD8
:1001E000DBCF84B58F7DFBCF8091B0008F7780937C
:1001F000B000D2CF8091B0008F7DF9CF3E2BDACF07
:10020000CF93DF9390E0FC01E057FF4F2491845897
:100210009F4FFC0184918823D1F090E0880F991FB3
:10022000FC01E859FF4FA591B491FC01EE58FF4F36
:10023000C591D49161110EC09FB7F8948C91E22FB3
:10024000E0958E238C932881E223E8839FBFDF9182
:10025000CF9108958FB7F894EC91E22BEC938FBF78
:10026000F6CF8E50806480937C0080917A00806409
:1002700080937A0080917A0086FDFCCF809178008F
:100280009091790008953FB7F89480911F01909163
:100290002001A0912101B091220126B5A89B05C0A3
:1002A0002F3F19F00196A11DB11D3FBFBA2FA92FF5
:1002B000982F8827BC01CD01620F711D811D911DF2
:1002C00042E0660F771F881F991F4A95D1F708955E
:1002D000089590E080E008950F931F93CF93DF93EC
:1002E000EC0188819981009759F02A813B8126177A
:1002F000370730F081E0DF91CF911F910F91089582
:100300008B016F5F7F4F0E948E06009759F0998393
:1003100088831B830A832C813D81232B59F7FC01A1
:100320001082E8CF80E0E7CFEF92FF920F931F9308
:10033000CF93DF936115710541F480E0DF91CF9198
:100340001F910F91FF90EF90089541155105B1F065
:100350007B01EC010C811D81040F151FB8010E9467
:100360006C01882351F3288139818C819D81B701EB
:10037000820F931F0E9454071D830C8381E0DECF00
:10038000CF93DF93EC0188819981009711F00E944F
:100390000506198218821D821C821B821A82DF9137
:1003A000CF910895EF92FF920F931F93CF93DF9316
:1003B000EC017B018A01BA010E946C0181110BC022
:1003C000CE010E94C001CE01DF91CF911F910F910C
:1003D000FF90EF9008951D830C83B7018881998168
:1003E0000E945407F0CFEF92FF920F931F93CF9389
:1003F000DF93CDB7DEB762970FB6F894DEBF0FBEBE
:10040000CDBF8C01CB01F8011182108213821282C0
:10041000158214824AE09E012F5F3F4F7901B90196
:100420000E94F704F70101900020E9F73197AF012E
:100430004E195F09B701C8010E94D20162960FB63A
:10044000F894DEBF0FBECDBFDF91CF911F910F910A
:10045000FF90EF900895FC0180819181009711F049
:100460000C9405060895CF93DF93EC0160E08E8134
:100470000E94B40061E08E810E94B40060E08E8131
:100480000E94B4008BE891E00197F1F7DF91CF91E2
:100490000895CF92DF92EF92FF920F931F93CF9325
:1004A000DF936C017C0187E0E80EF11CD0E0C0E036
:1004B000062F10E0B8010C2E02C0759567950A94BE
:1004C000E2F76170F70181917F010E94B4002196EB
:1004D000C430D10579F7C601DF91CF911F910F91FB
:1004E000FF90EF90DF90CF900C943302CF92DF9289
:1004F000EF92FF920F931F93CF93DF93EC01F62EB1
:10050000642F8C810E94B4008D818F3F19F060E0D0
:100510000E94B4000F2D10E08F8584FF25C06E016E
:1005200087E0C80ED11CF12CE12CB8010E2C02C0C2
:10053000759567950A94E2F76170F60181916F01F4
:100540000E94B400FFEFEF1AFF0A88E0E816F104FA
:1005500061F7CE01DF91CF911F910F91FF90EF9046
:10056000DF90CF900C943302B80184E075956795C5
:100570008A95E1F7CE010E9449026F2DCE01DF91ED
:10058000CF911F910F91FF90EF90DF90CF900C943F
:10059000490240E0682F83E291E00C947602CF9309
:1005A000DF93823029F49091320198609093320168
:1005B000809336011092370180E48093380180E106
:1005C0008093390180E580933A0161E080912701B1
:1005D0000E940001809128018F3F19F061E00E9484
:1005E000000161E0809129010E940001C3E2D1E095
:1005F0009E01235231408091320184FD0BC084E082
:1006000090E021962817390744F461E08E810E941A
:100610000001EECF88E090E0F4CF8BE39DE00197FE
:10062000F1F760E0809127010E94B40060E08091C2
:1006300029010E94B400809128018F3F19F060E0E9
:100640000E94B4008091320184FD39C063E083E2EE
:1006500091E00E944902CBE4D6E4CE010197F1F784
:1006600063E083E291E00E9449022197F1F763E0A1
:1006700083E291E00E94490283E592E00197F1F75D
:1006800062E083E291E00E9449028091320180623F
:100690000E94C90284E0809333018CE00E94C90269
:1006A00081E00E94C9028BE39FE10197F1F782E0AC
:1006B0008093340186E0DF91CF910C94C90280626F
:1006C0000E94C9028BE496E40197F1F78091320110
:1006D00080620E94C90283E592E00197F1F7809160
:1006E000320180620E94C902D0CF41E00E947602AE
:1006F00081E090E008951F920F920FB60F9211249F
:100700002F933F938F939F93AF93BF9380911B0140
:1007100090911C01A0911D01B0911E0130911A0110
:1007200023E0230F2D3758F50196A11DB11D20930D
:100730001A0180931B0190931C01A0931D01B0939B
:100740001E0180911F0190912001A0912101B09183
:1007500022010196A11DB11D80931F0190932001DC
:10076000A0932101B0932201BF91AF919F918F91EE
:100770003F912F910F900FBE0F901F90189526E874
:10078000230F0296A11DB11DD2CFCF93DF93CDB71A
:10079000DEB72C970FB6F894DEBF0FBECDBF7894AE
:1007A00084B5826084BD84B5816084BD85B5826076
:1007B00085BD85B5816085BD80916E008160809327
:1007C0006E00109281008091810082608093810090
:1007D00080918100816080938100809180008160A0
:1007E000809380008091B10084608093B1008091FB
:1007F000B00081608093B00080917A008460809323
:100800007A0080917A00826080937A0080917A00E9
:10081000816080937A0080917A00806880937A006A
:100820001092C10082E00E94CF0260E08EE00E9440
:10083000000160E08FE00E9400010BE31FE190E007
:10084000E92E90E0F92E8EE00E9431015C018FE0EC
:100850000E9431016C0181E00E94C902C801019728
:10086000F1F7E1E0809136018111E0E0E195F0E0FF
:10087000ED5DFE4F848980680E94C902B501CE01FA
:1008800001960E94F30118861F821A8619861C861B
:100890001B8642E050E062E171E0CE0107960E94C3
:1008A000D2014D815E8169817A81CE0107960E94D5
:1008B0009401811104C0CE0107960E94C0014B85AE
:1008C0005C856F81788583E291E00E948700CE018C
:1008D00007960E942B02CE0101960E942B02E1E0B6
:1008E000809136018111E0E0E195F0E0ED5DFE4F91
:1008F0008489885F80680E94C902B601CE01019692
:100900000E94F30118861F821A8619861C861B8690
:1009100044E050E065E171E0CE0107960E94D2010B
:100920004D815E8169817A81CE0107960E94940192
:10093000811104C0CE0107960E94C0014B855C85E1
:100940006F81788583E291E00E948700CE0107964F
:100950000E942B02CE0101960E942B020E944301AD
:100960002B013C0188EC882E912CA12CB12C0E94EB
:1009700043016419750986099709683E734081052A
:100980009105A8F321E0821A9108A108B10888EE28
:10099000480E83E0581E611C711C81149104A1044F
:1009A000B10429F7E114F10409F44DCF0E940000CD
:1009B0004ACFE3E2F1E0138212828AE091E0918370
:1009C000808382E084838FEF858383E0868384E065
:1009D000878385E0808786E0818787E0828713862A
:1009E000148615861686178681E00C94CF02BB27E5
:1009F0004A3031F4992322F4BDE2909581959F4FBE
:100A00000C940305BB27FB015527AA27880F991FC4
:100A1000AA1FA41710F0A41B83955051B9F7A05D2D
:100A2000AA3308F0A95DA193009779F7B111B193AA
:100A30001192CB010C941C05DC01FC01672F719114
:100A40007723E1F7329704C07C916D9370836291B4
:100A5000AE17BF07C8F308952F923F924F925F924F
:100A60006F927F928F929F92AF92BF92CF92DF92BE
:100A7000EF92FF920F931F93CF93DF93CDB7DEB723
:100A8000CA1BDB0B0FB6F894DEBF0FBECDBF0994B7
:100A90002A88398848885F846E847D848C849B840E
:100AA000AA84B984C884DF80EE80FD800C811B811C
:100AB000AA81B981CE0FD11D0FB6F894DEBF0FBE4B
:100AC000CDBFED010895EE0FFF1F0590F491E02DCD
:100AD00009940F931F93CF93DF938230910510F405
:100AE00082E090E0E0913D01F0913E0130E020E0B5
:100AF000B0E0A0E0309799F42115310509F44AC01F
:100B0000281B390B24303105D8F58A819B8161156A
:100B1000710589F1FB0193838283FE0111C040813D
:100B200051810281138148175907E0F0481759078E
:100B300099F4109761F012960C93129713961C93E8
:100B40003296CF01DF91CF911F910F9108950093BD
:100B50003D0110933E01F4CF2115310551F04217AC
:100B6000530738F0A901DB019A01BD01DF01F8014B
:100B7000C1CFEF01F9CF90933E0180933D01CDCFDE
:100B8000FE01E20FF31F81939193225031093983C3
:100B90002883D7CF20913B0130913C01232B41F496
:100BA000209102013091030130933C0120933B01DD
:100BB00020910001309101012115310541F42DB73B
:100BC0003EB74091040150910501241B350BE09183
:100BD0003B01F0913C01E217F307A0F42E1B3F0B01
:100BE0002817390778F0AC014E5F5F4F241735079F
:100BF00048F04E0F5F1F50933C0140933B0181939F
:100C000091939FCFF0E0E0E09CCFCF93DF930097EC
:100C1000E9F0FC01329713821282A0913D01B0915C
:100C20003E01ED0130E020E01097A1F420813181F8
:100C3000820F931F20913B0130913C012817390707
:100C400009F061C0F0933C01E0933B01DF91CF914B
:100C50000895EA01CE17DF07E8F54A815B819E011E
:100C600041155105B1F7E901FB83EA834991599197
:100C7000C40FD51FEC17FD0761F4808191810296A6
:100C8000840F951FE90199838883828193819B83D7
:100C90008A83F0E0E0E012968D919C911397009783
:100CA000B9F52D913C911197CD010296820F931FBA
:100CB00020913B0130913C012817390739F63097D4
:100CC00051F510923E0110923D01B0933C01A0936A
:100CD0003B01BCCFD383C28340815181840F951FD8
:100CE000C817D90761F44E5F5F4F88819981480F1B
:100CF000591F518340838A819B819383828321156D
:100D0000310509F0B0CFF0933E01E0933D019ECF55
:100D1000FD01DC01C0CF13821282D7CFB0E0A0E08A
:100D2000E4E9F6E00C942E058C01009751F4CB0118
:100D30000E9469058C01C801CDB7DEB7E0E10C94D3
:100D40004A05FC01E60FF71F9C0122503109E2170A
:100D5000F30708F49DC0D901CD91DC911197C61716
:100D6000D70798F0C530D10530F3CE010497861728
:100D7000970708F3C61BD70B2297C193D1936D93A6
:100D80007C93CF010E940506D6CF5B01AC1ABD0A49
:100D90004C018C0E9D1EA0913D01B0913E01512C45
:100DA000412CF12CE12C109731F580913B01909171
:100DB0003C018815990509F05CC04616570608F0F5
:100DC00058C08091000190910101009741F48DB7C6
:100DD0009EB74091040150910501841B950BE817C3
:100DE000F90708F055C0F0933C01E0933B01F9018D
:100DF00071836083A0CF8D919C91119712966C9016
:100E0000129713967C901397A815B90559F56C01A4
:100E100042E0C40ED11CCA14DB0420F1AC014A1913
:100E20005B09DA011296159780F062827382518312
:100E30004083D9016D937C93E114F10471F0D701E3
:100E40001396FC93EE93129776CF22968C0F9D1FEC
:100E5000F90191838083F301EFCFF0933E01E0939A
:100E60003D0169CF4816590608F42C017D01D301D4
:100E70009ACFCB010E9469057C01009749F0AE0131
:100E8000B8010E944B07C8010E940506870153CF95
:100E900010E000E050CFFB01DC0102C001900D9298
:100EA00041505040D8F70895FB01DC0101900D92AC
:0A0EB0000020E1F70895F894FFCF49
:100EBA0000003F01800000000000750387006901FF
:0A0ECA006801543A004C44523A000B
:00000001FF
