:100000000C945D000C9485000C9485000C94850084
:100010000C9485000C9485000C9485000C9485004C
:100020000C9485000C9485000C9485000C9485003C
:100030000C9485000C9485000C9485000C9485002C
:100040000C9482040C9485000C9450040C942A04A3
:100050000C9485000C9485000C9485000C9485000C
:100060000C9485000C94850000000008000201003B
:100070000003040700000000000000000000000072
:10008000250028002B0000000000240027002A0083
:10009000040404040404040402020202020203032E
:1000A0000303030301020408102040800102040836
:1000B0001020010204081020CC0411241FBECFEF31
:1000C000D8E0DEBFCDBF22E0A4E5B1E001C01D92C3
:1000D000A831B207E1F711E0A0E0B1E0E0E0F1E122
:1000E00002C005900D92A435B107D9F710E0CDE517
:1000F000D0E004C02197FE010E948606CC35D107CE
:10010000C9F70E9416050C947E080C94000090E03C
:10011000FC01EC55FF4F249180579F4FFC018491C7
:10012000882399F090E0880F991FFC01EA57FF4F50
:10013000A591B491FC01E458FF4F859194918FB73C
:10014000F894EC91E22BEC938FBF0895AF92BF929D
:10015000CF92DF92EF92FF920F931F93CF93DF9393
:100160006C017B018B01040F151FEB015E01AE18C2
:10017000BF08C017D10759F06991D601ED91FC91E4
:100180000190F081E02DC6010995892B79F7C50111
:10019000DF91CF911F910F91FF90EF90DF90CF9063
:1001A000BF90AF900895FC01538D448D252F30E012
:1001B000842F90E0821B930B541710F0CF96089574
:1001C00001970895FC01918D828D981761F0A28DA1
:1001D000AE0FBF2FB11D5D968C91928D9F5F9F7367
:1001E000928F90E008958FEF9FEF08952FB7F894C6
:1001F00080915B0190915C01A0915D01B0915E01E5
:100200002FBF8093670190936801A0936901B09319
:100210006A018FE591E00E94E20097FF26C02FB7A8
:10022000F89480915B0190915C01A0915D01B09187
:100230005E012FBF40916701509168016091690193
:1002400070916A01841B950BA60BB70B409163015B
:100250005091640160916501709166018417950762
:10026000A607B707B0F28FEF9FEF0895FC01918DBD
:10027000828D981731F0828DE80FF11D858D90E009
:1002800008958FEF9FEF0895FC01918D228D892FA6
:1002900090E0805C9F4F821B91098F73992708958E
:1002A0008FE591E00E94440121E0892B09F420E0D0
:1002B000822F089580E090E0892B29F00E94500160
:1002C00081110C9400000895FC01A48DA80FB92F92
:1002D000B11DA35ABF4F2C91848D90E001968F736E
:1002E0009927848FA689B7892C93A089B1898C918D
:1002F000837080648C93938D848D981306C00288DC
:10030000F389E02D80818F7D80830895EF92FF92A5
:100310000F931F93CF93DF93EC0181E0888F9B8D28
:100320008C8D98131AC0E889F989808185FF15C0E2
:100330009FB7F894EE89FF896083E889F989808105
:100340008370806480839FBF81E090E0DF91CF91D4
:100350001F910F91FF90EF900895F62E0B8D10E0F6
:100360000F5F1F4F0F731127E02E8C8D8E110CC065
:100370000FB607FCFACFE889F989808185FFF5CFB0
:10038000CE010E946401F1CFEB8DEC0FFD2FF11D2A
:10039000E35AFF4FF0829FB7F8940B8FEA89FB89ED
:1003A00080818062CFCFCF93DF93EC01888D88234B
:1003B000B9F0AA89BB89E889F9898C9185FD03C0C8
:1003C000808186FD0DC00FB607FCF7CF8C9185FFAD
:1003D000F2CF808185FFEDCFCE010E946401E9CF8D
:1003E000DF91CF91089590E0FC01E859FF4F2491EF
:1003F000FC01EC55FF4F3491FC01E057FF4FE491B5
:10040000EE23C9F0222339F0233001F1A8F4213082
:1004100019F1223029F1F0E0EE0FFF1FE458FF4FF1
:10042000A591B4918FB7F894EC91611126C03095E5
:100430003E233C938FBF08952730A9F02830C9F0A0
:10044000243049F7809180008F7D03C08091800027
:100450008F7780938000DFCF84B58F7784BDDBCF2B
:1004600084B58F7DFBCF8091B0008F778093B000F3
:10047000D2CF8091B0008F7DF9CF3E2BDACF3FB73E
:10048000F8948091550190915601A0915701B09137
:10049000580126B5A89B05C02F3F19F00196A11D54
:1004A000B11D3FBFBA2FA92F982F8827BC01CD01BE
:1004B000620F711D811D911D42E0660F771F881F1D
:1004C000991F4A95D1F708958F929F92AF92BF924C
:1004D000CF92DF92EF92FF924B015C010E943F02AC
:1004E0006B017C010E943F026C197D098E099F09F6
:1004F000683E734081059105A8F321E0821A9108B6
:10050000A108B10888EEC80E83E0D81EE11CF11CDA
:1005100081149104A104B10429F7FF90EF90DF90BA
:10052000CF90BF90AF909F908F900895089590E0E6
:1005300080E00895FB0101900020E9F73197AF01B9
:10054000461B570BDC01ED91FC910280F381E02DFD
:1005500009940F931F93CF93DF93EC0188819981C6
:10056000009759F02A813B812617370730F081E048
:10057000DF91CF911F910F9108958B016F5F7F4F96
:100580000E94B107009759F0998388831B830A83DF
:100590002C813D81232B59F7FC011082E8CF80E0AC
:1005A000E7CFCF93DF93EC0160E08E810E94F301EF
:1005B00061E08E810E94F30160E08E810E94F30170
:1005C0008BE891E00197F1F7DF91CF910895CF92F9
:1005D000DF92EF92FF920F931F93CF93DF936C0103
:1005E0007C0187E0E80EF11CD0E0C0E0062F10E0AF
:1005F000B8010C2E02C0759567950A94E2F76170F8
:10060000F70181917F010E94F3012196C430D10549
:1006100079F7C601DF91CF911F910F91FF90EF9075
:10062000DF90CF900C94D102CF92DF92EF92FF92A5
:100630000F931F93CF93DF93EC01F62E642F8C81E1
:100640000E94F3018D818F3F19F060E00E94F30159
:100650000F2D10E08F8584FF25C06E0187E0C80E46
:10066000D11CF12CE12CB8010E2C02C075956795B8
:100670000A94E2F76170F60181916F010E94F30123
:10068000FFEFEF1AFF0A88E0E816F10461F7CE01E8
:10069000DF91CF911F910F91FF90EF90DF90CF905E
:1006A0000C94D102B80184E0759567958A95E1F7BD
:1006B000CE010E94E7026F2DCE01DF91CF911F91F5
:1006C0000F91FF90EF90DF90CF900C94E70240E005
:1006D000682F8CEF91E00C94140381E00E94670373
:1006E0008BE39FE10197F1F70895CF93DF93823079
:1006F00029F490910B02986090930B0280930F0263
:100700001092100280E48093110280E18093120223
:1007100080E580931302809100020E9487008091FF
:1007200001028F3F11F00E948700809102020E9417
:100730008700CCEFD1E09E012C5F314080910B020D
:1007400084FD0AC084E090E02196281739073CF424
:100750008E810E948700EFCF88E090E0F5CF8BE399
:100760009DE00197F1F760E0809100020E94F301A3
:1007700060E0809102020E94F301809101028F3FAC
:1007800019F060E00E94F30180910B0284FD34C0F7
:1007900063E08CEF91E00E94E702CBE4D6E4CE0167
:1007A0000197F1F763E08CEF91E00E94E702219757
:1007B000F1F763E08CEF91E00E94E70283E592E0BD
:1007C0000197F1F762E08CEF91E00E94E7028091DF
:1007D0000B0280620E94670384E080930C028CE02D
:1007E0000E9467030E946D0382E080930D0286E001
:1007F000DF91CF910C94670380620E9467038BE4C2
:1008000096E40197F1F780910B0280620E946703E2
:1008100083E592E00197F1F780910B0280620E94DC
:100820006703D5CF643008F063E090910F02691739
:1008300010F06FEF690FE62FF0E0E450FE4F94895F
:10084000890F80680C94670341E00E94140381E0E3
:1008500090E008951F920F920FB60F9211242F93DC
:100860003F934F935F936F937F938F939F93AF9338
:10087000BF93EF93FF938FE591E00E946401FF9196
:10088000EF91BF91AF919F918F917F916F915F9108
:100890004F913F912F910F900FBE0F901F90189581
:1008A0001F920F920FB60F9211242F938F939F9345
:1008B000EF93FF93E0916F01F09170018081E091DF
:1008C0007501F091760182FD1BC0908180917801C5
:1008D0008F5F8F7320917901821741F0E091780149
:1008E000F0E0E15AFE4F958F80937801FF91EF91F0
:1008F0009F918F912F910F900FBE0F901F90189581
:100900008081F4CF1F920F920FB60F9211242F9374
:100910003F938F939F93AF93BF9380915B0190918F
:100920005C01A0915D01B0915E013091540123E022
:10093000230F2D3758F50196A11DB11D20935401A9
:1009400080935B0190935C01A0935D01B0935E0185
:100950008091550190915601A0915701B091580195
:100960000196A11DB11D8093550190935601A0934E
:100970005701B0935801BF91AF919F918F913F91D3
:100980002F910F900FBE0F901F90189526E8230F00
:100990000296A11DB11DD2CFEFE5F1E013821282C4
:1009A00088EE93E0A0E0B0E084839583A683B783CC
:1009B0008AE091E09183808385EC90E0958784873D
:1009C00084EC90E09787868780EC90E0918B808B19
:1009D00081EC90E0938B828B82EC90E0958B848B02
:1009E00086EC90E0978B868B118E128E138E148E70
:1009F000ECEFF1E0138212828CE191E0918380832D
:100A000082E084838FEF858383E0868384E087831D
:100A100085E0808786E0818787E082871386148659
:100A200015861686178681E00C947503CF93DF93A5
:100A3000CDB7DEB728970FB6F894DEBF0FBECDBF97
:100A4000789484B5826084BD84B5816084BD85B5A9
:100A5000826085BD85B5816085BD80916E008160B5
:100A600080936E001092810080918100826080935B
:100A7000810080918100816080938100809180005D
:100A80008160809380008091B10084608093B10088
:100A90008091B00081608093B00080917A00846082
:100AA00080937A0080917A00826080937A008091AE
:100AB0007A00816080937A0080917A0080688093C8
:100AC0007A001092C100E0916F01F091700182E014
:100AD0008083E0916B01F0916C011082E0916D01D7
:100AE000F0916E018FEC808310927701E091730199
:100AF000F091740186E08083E0917101F0917201C0
:100B0000808180618083E0917101F0917201808128
:100B100088608083E0917101F0917201808180682A
:100B20008083E0917101F091720180818F7D8083DB
:100B300082E00E9475030E946D0360E080E00E94E5
:100B4000120464E271E08CEF91E00E949A0261E08D
:100B500080E00E9412046CE271E08CEF91E00E9450
:100B60009A0260ED77E080E090E00E9464020E94CB
:100B70006D0380E0E82E80E0F82E6DE371E08FE5F4
:100B800091E00E949A0260E571E08FE591E00E9499
:100B90009A028FE591E00E944401181619060CF0A4
:100BA00064C01A8219821C821B821E821D8270E020
:100BB00060E0CE0101960E94A90229813A8181114B
:100BC0002BC02115310519F0C9010E9428071A828E
:100BD00019821E821D821C821B820E94F60097FDD4
:100BE00023C08F8318860D811E810F5F1F4FB801B0
:100BF000CE0101960E94A902882379F329813A81C6
:100C00008D819E81BE01695F7F4F820F931F0E947D
:100C100077081E830D83E1CF1E821D8262E571E09D
:100C2000C9010E947708D9CF0E946D0360915901D4
:100C30008FE00E9412044D815E8169817A818CEF80
:100C400091E00E94A6008091590190915A0101966D
:100C500082309105FCF490935A0180935901898167
:100C60009A81009711F00E94280788E10E9467038B
:100C700068EC70E080E090E00E946402E114F1040E
:100C800009F47BCF0E945001882309F476CF0E949B
:100C9000000073CF10925A0110925901E0CF2F92A9
:100CA0003F924F925F926F927F928F929F92AF92FC
:100CB000BF92CF92DF92EF92FF920F931F93CF9349
:100CC000DF93CDB7DEB7CA1BDB0B0FB6F894DEBFE0
:100CD0000FBECDBF09942A88398848885F846E8406
:100CE0007D848C849B84AA84B984C884DF80EE8050
:100CF000FD800C811B81AA81B981CE0FD11D0FB659
:100D0000F894DEBF0FBECDBFED010895EE0FFF1FBB
:100D10000590F491E02D09940F931F93CF93DF93E7
:100D20008230910510F482E090E0E0911602F0919B
:100D3000170230E020E0B0E0A0E0309799F42115F0
:100D4000310509F44AC0281B390B24303105D8F588
:100D50008A819B816115710589F1FB0193838283EF
:100D6000FE0111C04081518102811381481759074A
:100D7000E0F04817590799F4109761F012960C9318
:100D8000129713961C933296CF01DF91CF911F914A
:100D90000F9108950093160210931702F4CF2115B6
:100DA000310551F04217530738F0A901DB019A01D0
:100DB000BD01DF01F801C1CFEF01F9CF9093170218
:100DC00080931602CDCFFE01E20FF31F8193919322
:100DD0002250310939832883D7CF209114023091D2
:100DE0001502232B41F4209102013091030130932D
:100DF0001502209314022091000130910101211568
:100E0000310541F42DB73EB74091040150910501E1
:100E1000241B350BE0911402F0911502E217F30741
:100E2000A0F42E1B3F0B2817390778F0AC014E5F5A
:100E30005F4F2417350748F04E0F5F1F5093150280
:100E400040931402819391939FCFF0E0E0E09CCF18
:100E5000CF93DF930097E9F0FC013297138212825F
:100E6000A0911602B0911702ED0130E020E010973A
:100E7000A1F420813181820F931F209114023091BF
:100E800015022817390709F061C0F0931502E093A5
:100E90001402DF91CF910895EA01CE17DF07E8F53C
:100EA0004A815B819E0141155105B1F7E901FB8340
:100EB000EA8349915991C40FD51FEC17FD0761F4DE
:100EC000808191810296840F951FE901998388831F
:100ED000828193819B838A83F0E0E0E012968D917A
:100EE0009C9113970097B9F52D913C911197CD01E5
:100EF0000296820F931F2091140230911502281739
:100F0000390739F6309751F51092170210921602F0
:100F1000B0931502A0931402BCCFD383C283408147
:100F20005181840F951FC817D90761F44E5F5F4F39
:100F300088819981480F591F518340838A819B8101
:100F4000938382832115310509F0B0CFF093170206
:100F5000E09316029ECFFD01DC01C0CF1382128206
:100F6000D7CFB0E0A0E0E7EBF7E00C9451068C019E
:100F7000009751F4CB010E948C068C01C801CDB7BB
:100F8000DEB7E0E10C946D06FC01E60FF71F9C0153
:100F900022503109E217F30708F49DC0D901CD9121
:100FA000DC911197C617D70798F0C530D10530F3FB
:100FB000CE0104978617970708F3C61BD70B229715
:100FC000C193D1936D937C93CF010E942807D6CF14
:100FD0005B01AC1ABD0A4C018C0E9D1EA09116023D
:100FE000B0911702512C412CF12CE12C109731F5C6
:100FF00080911402909115028815990509F05CC042
:101000004616570608F058C08091000190910101E2
:10101000009741F48DB79EB74091040150910501AE
:10102000841B950BE817F90708F055C0F0931502DB
:10103000E0931402F90171836083A0CF8D919C919C
:10104000119712966C90129713967C901397A8158F
:10105000B90559F56C0142E0C40ED11CCA14DB0479
:1010600020F1AC014A195B09DA011296159780F05C
:101070006282738251834083D9016D937C93E11422
:10108000F10471F0D7011396FC93EE93129776CF8B
:1010900022968C0F9D1FF90191838083F301EFCF7E
:1010A000F0931702E093160269CF4816590608F428
:1010B0002C017D01D3019ACFCB010E948C067C01CB
:1010C000009749F0AE01B8010E946E08C8010E9465
:1010D0002807870153CF10E000E050CFFB01DC016F
:1010E00002C001900D9241505040D8F70895FB0185
:1010F000DC0101900D920020E1F70895F894FFCFF4
:10110000000018028000000000008601A600D30045
:10111000D3014401E2003601000000002404A600CF
:101120009702960257454C434F4D450057697265EB
:101130006C65737320446973706C617900456E74DB
:10114000657220796F7572206D65737367616500D4
:041150000D0A000084
:00000001FF
