:0308BD001208D14D
:0F08C0001208F18F087F801208FCAF081209049C
:0208CF0080EFB8
:10080000C2A0D2A1D2A2D2A320A40630A4FD7F31DF
:100810002220A50630A5FD7F322220A60630A6FDA7
:100820007F3322D2A0C2A1D2A2D2A320A40630A498
:10083000FD7F342220A50630A5FD7F352220A606A7
:1008400030A6FD7F3622D2A0D2A1C2A2D2A320A47C
:100850000630A4FD7F372220A50630A5FD7F382273
:1008600020A60630A6FD7F3922D2A0D2A1D2A2C2F4
:10087000A320A40630A4FD7F2A2220A50630A5FDD2
:0F0880007F302220A60630A6FD7F23227F6E2226
:0A08F1007F6EBF6E0512080080F84C
:0108FB0022DA
:0808FC00C29012088FC2912284
:08090400D29012088FC291226B
:1008D1007F381208FC7F011208FC7F0E1208FC7F92
:0408E100060208FC07
:08088F008FB0D2917F017E00C1
:10089700E4FBFAD3EB9FEE6480F8EA648098501586
:1008A700E4FCFD0DBD00010CBC03F8BDE9F50BBB75
:0508B70000010A80DED3
:0108BC002219
:030000000208E50E
:0C08E500787FE4F6D8FD7581080208BD9C
:00000001FF
