:1008000012086C7F0112088C7F8012088C7F4812BE
:1008100008947F491208947FC012088C7F48120800
:10082000947F451208947F4C1208947F4C120894D0
:0E0830007F4F1208947F647E0012084680C538
:08088C00C2B012083EC2B12205
:08089400D2B012083EC2B122ED
:10086C007F3812088C7F0112088C7F0E12088C7F47
:04087C000602088CDC
:08083E008FA0D2B17F017E0002
:10084600E4FBFAD3EB9FEE6480F8EA6480985015D7
:10085600E4FCFD0DBD00010CBC03F8BDE9F50BBBC6
:0508660000010A80DE24
:01086B00226A
:0300000002088073
:0C088000787FE4F6D8FD758107020800BF
:00000001FF
