:020000040000FA
:100000000C9462000C948A000C948A000C948A0070
:100010000C948A000C948A000C948A000C948A0038
:100020000C948A000C948A000C948A000C948A0028
:100030000C948A000C948A000C948A000C948A0018
:100040000C9477030C948A000C948A000C948A0018
:100050000C948A000C948A000C948A000C948A00F8
:100060000C948A000C948A000000000024002700F1
:100070002A0000000000250028002B0000000000DE
:1000800023002600290004040404040404040202DA
:100090000202020203030303030301020408102007
:1000A0004080010204081020010204081020000012
:1000B0000008000201000003040700000000000027
:1000C0000000120511241FBECFEFD8E0DEBFCDBF68
:1000D00021E0A0E6B1E001C01D92A538B207E1F72A
:1000E00011E0A0E0B1E0ECE2FFE002C005900D926B
:1000F000A036B107D9F710E0C2E6D0E004C02197DE
:10010000FE010E949C05C136D107C9F70E94C103B8
:100110000C9494070C940000AF92BF92CF92DF92A0
:10012000EF92FF920F931F93CF93DF936C017B01AC
:100130008B01040F151FEB015E01AE18BF08C0173D
:10014000D10759F06991D601ED91FC910190F081B0
:10015000E02DC6010995892B79F7C501DF91CF9173
:100160001F910F91FF90EF90DF90CF90BF90AF90D5
:100170000895833081F028F4813099F08230A9F01D
:1001800008958730A9F08830C9F08430B1F48091A7
:1001900080008F7D03C0809180008F7780938000E6
:1001A000089584B58F7784BD089584B58F7DFBCF86
:1001B0008091B0008F778093B00008958091B00057
:1001C0008F7DF9CFCF93DF93E6EBF0E08491E2EA05
:1001D000F0E0D491EEE8F0E0C491CC23A1F08111DD
:1001E0000E94B900EC2FF0E0EE0FFF1FE458FF4F24
:1001F000A591B491EC91ED2381E090E009F480E0C9
:10020000DF91CF91089580E090E0FACF1F93CF93D4
:10021000DF93282F30E0F901E255FF4F8491F90177
:10022000E656FF4FD491F901EA57FF4FC491CC2312
:10023000A9F0162F81110E94B900EC2FF0E0EE0F0B
:10024000FF1FEE58FF4FA591B4918FB7F894EC9132
:10025000111108C0D095DE23DC938FBFDF91CF91C1
:100260001F910895DE2BF8CFCF93DF9390E0FC0130
:10027000E656FF4F24918A579F4FFC0184918823B3
:10028000D1F090E0880F991FFC01E859FF4FA5912C
:10029000B491FC01EE58FF4FC591D49161110EC08D
:1002A0009FB7F8948C91E22FE0958E238C93288150
:1002B000E223E8839FBFDF91CF9108958FB7F89431
:1002C000EC91E22BEC938FBFF6CF3FB7F89480917F
:1002D000650190916601A0916701B091680126B512
:1002E000A89B05C02F3F19F00196A11DB11D3FBF6E
:1002F000BA2FA92F982F8827BC01CD01620F711D3D
:10030000811D911D42E0660F771F881F991F4A9536
:10031000D1F708958F929F92AF92BF92CF92DF92C2
:10032000EF92FF926B017C010E9465014B015C0121
:10033000C114D104E104F104B9F00E946501681907
:1003400079098A099B09683E73408105910580F30C
:1003500021E0C21AD108E108F10888EE880E83E096
:10036000981EA11CB11CE4CFFF90EF90DF90CF90BE
:10037000BF90AF909F908F900895089590E080E097
:100380000895FC0101900020E9F73197AF01481B67
:10039000590BBC0189E691E00C948C000F931F93DC
:1003A000CF93DF93EC0188819981009759F02A81DE
:1003B0003B812617370730F081E0DF91CF911F9105
:1003C0000F9108958B016F5F7F4F0E94C7060097C2
:1003D00059F0998388831B830A832C813D81232BC9
:1003E00059F7FC011082E8CF80E0E7CFEF92FF924F
:1003F0000F931F93CF93DF93EC017B018A01BA0126
:100400000E94CE0128813981811114C02115310546
:1004100019F0C9010E943E06198218821D821C82B1
:100420001B821A82CE01DF91CF911F910F91FF9015
:10043000EF9008951D830C83B701C9010E948D07B9
:10044000F1CFCF93DF93EC0160E08E810E94060133
:1004500061E08E810E94060160E08E810E940601AB
:100460008BE891E00197F1F7DF91CF910895CF925A
:10047000DF92EF92FF920F931F93CF93DF936C0164
:100480007C0187E0E80EF11CD0E0C0E0062F10E010
:10049000B8010C2E02C0759567950A94E2F7617059
:1004A000F70181917F010E9406012196C430D10598
:1004B00079F7C601DF91CF911F910F91FF90EF90D7
:1004C000DF90CF900C942102CF92DF92EF92FF92B7
:1004D0000F931F93CF93DF93EC01F62E642F8C8143
:1004E0000E9406018D818F3F19F060E00E94060195
:1004F0000F2D10E08F8584FF25C06E0187E0C80EA8
:10050000D11CF12CE12CB8010E2C02C07595679519
:100510000A94E2F76170F60181916F010E94060171
:10052000FFEFEF1AFF0A88E0E816F10461F7CE0149
:10053000DF91CF911F910F91FF90EF90DF90CF90BF
:100540000C942102B80184E0759567958A95E1F7CE
:10055000CE010E9437026F2DCE01DF91CF911F9106
:100560000F91FF90EF90DF90CF900C94370240E016
:10057000682F89E691E00C946402CF93DF93823078
:1005800029F49091780198609093780180937C0190
:1005900010927D0180E480937E0180E180937F0151
:1005A00080E58093800161E080916D010E943401BB
:1005B00080916E018F3F19F061E00E94340161E08B
:1005C00080916F010E943401C9E6D1E09E01295655
:1005D00031408091780184FD0BC084E090E0219649
:1005E0002817390744F461E08E810E943401EECF70
:1005F00088E090E0F4CF8BE39DE00197F1F760E0B5
:1006000080916D010E94060160E080916F010E945F
:10061000060180916E018F3F19F060E00E94060193
:100620008091780184FD39C063E089E691E00E9401
:100630003702CBE4D6E4CE010197F1F763E089E617
:1006400091E00E9437022197F1F763E089E691E09B
:100650000E94370283E592E00197F1F762E089E6B4
:1006600091E00E9437028091780180620E94B70277
:1006700084E0809379018CE00E94B70281E00E94BF
:10068000B7028BE39FE10197F1F782E080937A0153
:1006900086E0DF91CF910C94B70280620E94B7028E
:1006A0008BE496E40197F1F78091780180620E94D3
:1006B000B70283E592E00197F1F7809178018062BB
:1006C0000E94B702D0CF90917C01891710F08FEF74
:1006D000890FE82FF0E0E759FE4F848980680C9479
:1006E000B70241E00E94640281E090E008951F9209
:1006F0000F920FB60F9211242F933F938F939F93D6
:10070000AF93BF938091610190916201A0916301C9
:10071000B09164013091600123E0230F2D3758F52B
:100720000196A11DB11D20936001809361019093FA
:100730006201A0936301B09364018091650190917F
:100740006601A0916701B09168010196A11DB11DDC
:100750008093650190936601A0936701B09368014F
:10076000BF91AF919F918F913F912F910F900FBEAD
:100770000F901F90189526E8230F0296A11DB11D1A
:10078000D2CFCF93DF93CDB7DEB768970FB6F8948B
:10079000DEBF0FBECDBF789484B5826084BD84B5C2
:1007A000816084BD85B5826085BD85B5816085BD6C
:1007B00080916E00816080936E0010928100809124
:1007C00081008260809381008091810081608093AC
:1007D0008100809180008160809380008091B100D1
:1007E00084608093B1008091B00081608093B000FC
:1007F00080917A00846080937A0080917A00826090
:1008000080937A0080917A00816080937A00809151
:100810007A00806880937A001092C10082E00E9482
:10082000BD0260E088E00E94340161E089E00E943E
:10083000340161E08AE00E9434018BE3682E8FE18D
:10084000782E8E010F5F1F4F90E0892E90E0992E39
:100850000E94E2006C0181E00E94B702C30101978F
:10086000F1F780E00E9463031C8A1B8A1E8A1D8A9E
:10087000188E1F8A4AE0B801C6010E943005F801AF
:1008800001900020E9F73197AF01401B510BB801EF
:10089000CE0143960E94F6011A8219821C821B82A5
:1008A0001E821D8244E050E062E171E0C8010E94B6
:1008B000F601AB88BC88A114B10409F498C0EF8894
:1008C000F88CE114F104B1F08D819E81E80EF91EDF
:1008D000B701C8010E94CE01882309F488C029818C
:1008E0003A818D819E81B501820F931F0E948D07F1
:1008F000FE82ED824D815E8169817A8189E691E097
:100900000E948C0089819A81009711F00E943E0616
:100910008B899C89009711F00E943E0668EC70E07C
:1009200080E090E00E948A0181E0C816D10409F0BD
:100930006BC081E00E94630387E191E00E94C101E6
:1009400068EC70E080E090E00E948A0161E089E05C
:100950000E94060160E08AE00E94060160ED77E0F7
:1009600080E090E00E948A0160E089E00E94060138
:1009700060E08AE00E94060181E00E94630389E250
:1009800091E00E94C10160ED77E080E090E00E947C
:100990008A010E94E2000197E1F360E089E00E9491
:1009A000060161E08AE00E94060160ED77E080E0E8
:1009B00090E00E948A0160E089E00E94060160E008
:1009C0008AE00E94060181E00E9463038BE391E0CC
:1009D0000E94C10160ED77E080E090E00E948A0112
:1009E0008114910409F434CF0E94000031CF898131
:1009F0009A81009711F00E943E061A8219821E8287
:100A00001D821C821B8276CFCD2851F781E00E9487
:100A100063038DE491E00E94C10168EC70E080E026
:100A200090E0DCCFE9E6F1E0138212828AE091E007
:100A30009183808382E084838FEF858383E0868344
:100A400084E0878385E0808786E0818787E08287EE
:100A50001386148615861686178681E00C94BD02CF
:100A6000BB274A3031F4992322F4BDE29095819559
:100A70009F4F0C943C05BB27FB015527AA27880FE5
:100A8000991FAA1FA41710F0A41B83955051B9F702
:100A9000A05DAA3308F0A95DA193009779F7B11181
:100AA000B1931192CB010C945505DC01FC01672F29
:100AB00071917723E1F7329704C07C916D93708335
:100AC0006291AE17BF07C8F308952F923F924F92DD
:100AD0005F926F927F928F929F92AF92BF92CF92CE
:100AE000DF92EF92FF920F931F93CF93DF93CDB7D7
:100AF000DEB7CA1BDB0B0FB6F894DEBF0FBECDBF4F
:100B000009942A88398848885F846E847D848C841F
:100B10009B84AA84B984C884DF80EE80FD800C8128
:100B20001B81AA81B981CE0FD11D0FB6F894DEBF0B
:100B30000FBECDBFED010895EE0FFF1F0590F4919C
:100B4000E02D09940F931F93CF93DF93823091058B
:100B500010F482E090E0E0918301F091840130E0B4
:100B600020E0B0E0A0E0309799F42115310509F4B8
:100B70004AC0281B390B24303105D8F58A819B8166
:100B80006115710589F1FB0193838283FE0111C018
:100B9000408151810281138148175907E0F04817BD
:100BA000590799F4109761F012960C9312971396C7
:100BB0001C933296CF01DF91CF911F910F91089531
:100BC0000093830110938401F4CF2115310551F076
:100BD0004217530738F0A901DB019A01BD01DF017B
:100BE000F801C1CFEF01F9CF909384018093830185
:100BF000CDCFFE01E20FF31F819391932250310973
:100C000039832883D7CF2091810130918201232B12
:100C100041F420910201309103013093820120932D
:100C2000810120910001309101012115310541F42C
:100C30002DB73EB74091040150910501241B350B9F
:100C4000E0918101F0918201E217F307A0F42E1BDD
:100C50003F0B2817390778F0AC014E5F5F4F241720
:100C6000350748F04E0F5F1F50938201409381017A
:100C7000819391939FCFF0E0E0E09CCFCF93DF93FF
:100C80000097E9F0FC01329713821282A091830150
:100C9000B0918401ED0130E020E01097A1F42081B3
:100CA0003181820F931F2091810130918201281799
:100CB000390709F061C0F0938201E0938101DF916F
:100CC000CF910895EA01CE17DF07E8F54A815B81ED
:100CD0009E0141155105B1F7E901FB83EA83499172
:100CE0005991C40FD51FEC17FD0761F480819181E4
:100CF0000296840F951FE9019983888382819381ED
:100D00009B838A83F0E0E0E012968D919C9113978B
:100D10000097B9F52D913C911197CD010296820F64
:100D2000931F20918101309182012817390739F6EC
:100D3000309751F51092840110928301B093820193
:100D4000A0938101BCCFD383C28340815181840FA2
:100D5000951FC817D90761F44E5F5F4F888199814D
:100D6000480F591F518340838A819B8193838283DB
:100D70002115310509F0B0CFF0938401E093830190
:100D80009ECFFD01DC01C0CF13821282D7CFB0E02D
:100D9000A0E0EDECF6E00C9467058C01009751F4AF
:100DA000CB010E94A2058C01C801CDB7DEB7E0E1FE
:100DB0000C948305FC01E60FF71F9C0122503109BA
:100DC000E217F30708F49DC0D901CD91DC9111978A
:100DD000C617D70798F0C530D10530F3CE01049778
:100DE0008617970708F3C61BD70B2297C193D19399
:100DF0006D937C93CF010E943E06D6CF5B01AC1A67
:100E0000BD0A4C018C0E9D1EA0918301B0918401FE
:100E1000512C412CF12CE12C109731F5809181015E
:100E2000909182018815990509F05CC04616570615
:100E300008F058C08091000190910101009741F4A1
:100E40008DB79EB74091040150910501841B950B0D
:100E5000E817F90708F055C0F0938201E09381018B
:100E6000F90171836083A0CF8D919C9111971296A7
:100E70006C90129713967C901397A815B90559F5A5
:100E80006C0142E0C40ED11CCA14DB0420F1AC0199
:100E90004A195B09DA011296159780F06282738213
:100EA00051834083D9016D937C93E114F10471F077
:100EB000D7011396FC93EE93129776CF22968C0F60
:100EC0009D1FF90191838083F301EFCFF09384019B
:100ED000E093830169CF4816590608F42C017D017F
:100EE000D3019ACFCB010E94A2057C01009749F063
:100EF000AE01B8010E948407C8010E943E06870126
:100F000053CF10E000E050CFFB01DC0102C00190A4
:100F10000D9241505040D8F70895FB01DC0101903B
:100F20000D920020E1F70895F894FFCF00008501AD
:100F300080000000000071038C00BE01BD0150491B
:100F4000523A0053656E736F722064657465637402
:100F50006564202000446F6F72204F70656E656479
:100F600020202020202000446F6F7220436C6F737C
:100F700065642020202020200053656E736F72204E
:0C0F80006E6F742064657465637400007B
:107E0000112484B714BE81FFF0D085E080938100F7
:107E100082E08093C00088E18093C10086E0809377
:107E2000C20080E18093C4008EE0C9D0259A86E02C
:107E300020E33CEF91E0309385002093840096BBD3
:107E4000B09BFECF1D9AA8958150A9F7CC24DD24C4
:107E500088248394B5E0AB2EA1E19A2EF3E0BF2EE7
:107E6000A2D0813461F49FD0082FAFD0023811F036
:107E7000013811F484E001C083E08DD089C08234E0
:107E800011F484E103C0853419F485E0A6D080C0E4
:107E9000853579F488D0E82EFF2485D0082F10E0AE
:107EA000102F00270E291F29000F111F8ED06801E7
:107EB0006FC0863521F484E090D080E0DECF843638
:107EC00009F040C070D06FD0082F6DD080E0C81688
:107ED00080E7D80618F4F601B7BEE895C0E0D1E017
:107EE00062D089930C17E1F7F0E0CF16F0E7DF06D8
:107EF00018F0F601B7BEE89568D007B600FCFDCFD4
:107F0000A601A0E0B1E02C9130E011968C91119780
:107F100090E0982F8827822B932B1296FA010C0160
:107F200087BEE89511244E5F5F4FF1E0A038BF0790
:107F300051F7F601A7BEE89507B600FCFDCF97BE46
:107F4000E89526C08437B1F42ED02DD0F82E2BD052
:107F50003CD0F601EF2C8F010F5F1F4F84911BD097
:107F6000EA94F801C1F70894C11CD11CFA94CF0C13
:107F7000D11C0EC0853739F428D08EE10CD085E9AC
:107F80000AD08FE07ACF813511F488E018D01DD067
:107F900080E101D065CF982F8091C00085FFFCCF94
:107FA0009093C60008958091C00087FFFCCF809118
:107FB000C00084FD01C0A8958091C6000895E0E648
:107FC000F0E098E1908380830895EDDF803219F02E
:107FD00088E0F5DFFFCF84E1DECF1F93182FE3DFCA
:107FE0001150E9F7F2DF1F91089580E0E8DFEE27F6
:047FF000FF270994CA
:027FFE00040479
:00000001FF
