:020000040000FA
:100000000C9462000C948A000C948A000C948A0070
:100010000C948A000C948A000C948A000C948A0038
:100020000C948A000C948A000C948A000C948A0028
:100030000C948A000C948A000C948A000C948A0018
:100040000C9434040C948A000C9402040C94DC0389
:100050000C948A000C948A000C948A000C948A00F8
:100060000C948A000C948A000000000025002800EF
:100070002B0000000000240027002A0000000000E0
:1000800023002600290004040404040404040202DA
:100090000202020203030303030301020408102007
:1000A0004080010204081020010204081020000012
:1000B0000008000201000003040700000000000027
:1000C0000000320711241FBECFEFD8E0DEBFCDBF46
:1000D00023E0AEE6B2E001C01D92AC31B207E1F719
:1000E00012E0A0E0B1E0EEE2F4E102C005900D9272
:1000F000AE36B107D9F710E0C2E6D0E004C02197D0
:10010000FE010E941D08C136D107C9F70E94C40430
:100110000C94150A0C940000AF92BF92CF92DF921C
:10012000EF92FF920F931F93CF93DF936C017B01AC
:100130008B01040F151FEB015E01AE18BF08C0173D
:10014000D10759F06991D601ED91FC910190F081B0
:10015000E02DC6010995892B79F7C501DF91CF9173
:100160001F910F91FF90EF90DF90CF90BF90AF90D5
:100170000895FC01538D448D252F30E0842F90E0AD
:10018000821B930B541710F0CF9608950197089592
:10019000FC01918D828D981761F0A28DAE0FBF2F5B
:1001A000B11D5D968C91928D9F5F9F73928F90E0B1
:1001B00008958FEF9FEF0895FC01918D828D981720
:1001C00031F0828DE80FF11D858D90E008958FEF5D
:1001D0009FEF08952FB7F89480917702909178025D
:1001E000A0917902B0917A022FBF809383029093FD
:1001F0008402A0938502B09386028BE792E00E946E
:10020000DC0097FF26C02FB7F89480917702909179
:100210007802A0917902B0917A022FBF40918302B7
:10022000509184026091850270918602841B950B27
:10023000A60BB70B40917F02509180026091810222
:100240007091820284179507A607B707B0F28FEF67
:100250009FEF0895CF92DF92EF92FF92CF930E948B
:10026000EA00FC0197FD4EC08D32910521F0C09748
:100270000A9708F040C0C12CD12C7601C0E0E130D3
:10028000F105D1F0ED32F105D9F1CF01C0970A9710
:1002900098F4AAE0B0E0A70196010E94AA076F01B6
:1002A000FF0FEE08FF08C60ED71EE81EF91E80E3FA
:1002B000C81AD108E108F1088BE792E00E94C80053
:1002C0000E94EA00FC01C0970A97C8F2E130F105EC
:1002D000B1F2CC2341F0F094E094D094C094C11CCE
:1002E000D11CE11CF11CC701B601CF91FF90EF902A
:1002F000DF90CF9008958BE792E00E94C800AFCFC7
:10030000C1E0DACFC12CD12C7601EDCFFC01918D6B
:10031000228D892F90E0805C9F4F821B91098F7303
:10032000992708958BE792E00E94860121E0892BAE
:1003300009F420E0822F089580E090E0892B29F0D5
:100340000E94920181110C9400000895FC01A48D7B
:10035000A80FB92FB11DA35ABF4F2C91848D90E0E7
:1003600001968F739927848FA689B7892C93A089CA
:10037000B1898C91837080648C93938D848D981354
:1003800006C00288F389E02D80818F7D80830895E7
:10039000EF92FF920F931F93CF93DF93EC0181E0D5
:1003A000888F9B8D8C8D98131AC0E889F98980817C
:1003B00085FF15C09FB7F894EE89FF896083E889AF
:1003C000F98980818370806480839FBF81E090E0A1
:1003D000DF91CF911F910F91FF90EF900895F62E2E
:1003E0000B8D10E00F5F1F4F0F731127E02E8C8DC8
:1003F0008E110CC00FB607FCFACFE889F98980810D
:1004000085FFF5CFCE010E94A601F1CFEB8DEC0F59
:10041000FD2FF11DE35AFF4FF0829FB7F8940B8F29
:10042000EA89FB8980818062CFCFCF93DF93EC0193
:10043000888D8823B9F0AA89BB89E889F9898C91CC
:1004400085FD03C0808186FD0DC00FB607FCF7CF88
:100450008C9185FFF2CF808185FFEDCFCE010E9488
:10046000A601E9CFDF91CF9108953FB7F89480912D
:100470006F0290917002A0917102B091720226B544
:10048000A89B05C02F3F19F00196A11DB11D3FBFCC
:10049000BA2FA92F982F8827BC01CD01620F711D9B
:1004A000811D911D42E0660F771F881F991F4A9595
:1004B000D1F708958F929F92AF92BF92CF92DF9221
:1004C000EF92FF924B015C010E9435026B017C01AF
:1004D0000E9435026C197D098E099F09683E7340A0
:1004E00081059105A8F321E0821A9108A108B108BD
:1004F00088EEC80E83E0D81EE11CF11C8114910423
:10050000A104B10429F7FF90EF90DF90CF90BF9046
:10051000AF909F908F900895FC0101900020E9F723
:100520003197AF01481B590BBC018BE792E00C944B
:100530008C0082E291E00C948C028F929F92AF9299
:10054000BF920F931F93CF93DF93CDB7DEB7A197E1
:100550000FB6F894DEBF0FBECDBF19A2423008F42B
:100560004AE08E010F5D1F4F842E912CB12CA12CDF
:10057000A50194010E94FB07E62FB901CA01EA30E8
:10058000F4F4E05DD801EE938D01232B242B252B71
:1005900079F790E080E0109719F0CD010E948C026D
:1005A000A1960FB6F894DEBF0FBECDBFDF91CF91FD
:1005B0001F910F91BF90AF909F908F900895E95C2D
:1005C000E1CFCF92DF92EF92FF92CF93DF936B0157
:1005D0007C016DE28BE792E00E94C801EC01662786
:1005E0007727CB016C197D098E099F094AE00E948B
:1005F0009D028C0F9D1FDF91CF91FF90EF90DF90B8
:10060000CF900895CF93DF930E948C02EC010E945B
:1006100099028C0F9D1FDF91CF910895009711F0E3
:100620000C948C0290E080E008950F931F93CF9379
:10063000DF93EC0188819981009759F02A813B81F1
:100640002617370730F081E0DF91CF911F910F918E
:1006500008958B016F5F7F4F0E944809009759F002
:10066000998388831B830A832C813D81232B59F72F
:10067000FC011082E8CF80E0E7CFEF92FF920F936A
:100680001F93CF93DF936115710541F480E0DF91F3
:10069000CF911F910F91FF90EF9008954115510553
:1006A000B1F07B01EC010C811D81040F151FB80115
:1006B0000E941503882351F3288139818C819D8103
:1006C000B701820F931F0E940E0A1D830C8381E0E5
:1006D000DECFCF93DF93EC0188819981009711F0F1
:1006E0000E94BF08198218821D821C821B821A82F6
:1006F000DF91CF910895EF92FF920F931F93CF93C5
:10070000DF93EC017B018A01BA010E94150381117C
:100710000BC0CE010E946903CE01DF91CF911F91E2
:100720000F91FF90EF9008951D830C83B70188818E
:1007300099810E940E0AF0CFEF92FF920F931F93C0
:10074000CF93DF93CDB7DEB762970FB6F894DEBFD5
:100750000FBECDBF8C01CB01F80111821082138234
:100760001282158214824AE09E012F5F3F4F790169
:10077000B9010E945F07F70101900020E9F7319766
:10078000AF014E195F09B701C8010E947B03629651
:100790000FB6F894DEBF0FBECDBFDF91CF911F9192
:1007A0000F91FF90EF900895FC0180819181009757
:1007B00011F00C94BF0808951F920F920FB60F927C
:1007C00011242F933F934F935F936F937F938F9356
:1007D0009F93AF93BF93EF93FF938BE792E00E94B9
:1007E000A601FF91EF91BF91AF919F918F917F9162
:1007F0006F915F914F913F912F910F900FBE0F908E
:100800001F9018951F920F920FB60F9211242F93DD
:100810008F939F93EF93FF93E0918B02F0918C0263
:100820008081E0919102F091920282FD1BC0908143
:10083000809194028F5F8F7320919502821741F00F
:10084000E0919402F0E0E558FD4F958F809394027B
:10085000FF91EF919F918F912F910F900FBE0F906D
:100860001F9018958081F4CF1F920F920FB60F92B0
:1008700011242F933F938F939F93AF93BF938091B6
:10088000770290917802A0917902B0917A0230912A
:100890006E0223E0230F2D3758F50196A11DB11DDF
:1008A00020936E028093770290937802A09379024E
:1008B000B0937A0280916F0290917002A0917102C0
:1008C000B09172020196A11DB11D80936F029093A9
:1008D0007002A0937102B0937202BF91AF919F9189
:1008E0008F913F912F910F900FBE0F901F901895F1
:1008F00026E8230F0296A11DB11DD2CFE6EBF0E052
:100900008491E2EAF0E09491EEE8F0E0E491EE23E5
:10091000C1F1882339F08330E9F090F4813001F19E
:10092000823011F1F0E0EE0FFF1FE458FF4FA59168
:10093000B491EC91E92381E090E029F580E00895FD
:100940008730A9F08830C9F0843061F78091800049
:100950008F7D03C0809180008F7780938000E2CFED
:1009600084B58F7784BDDECF84B58F7DFBCF80913A
:10097000B0008F778093B000D5CF8091B0008F7D8D
:10098000F9CF80E090E00895CF93DF93CDB7DEB745
:100990002C970FB6F894DEBF0FBECDBF789484B508
:1009A000826084BD84B5816084BD85B5826085BD6B
:1009B00085B5816085BD80916E00816080936E00F9
:1009C00010928100809181008260809381008091EB
:1009D000810081608093810080918000816080939C
:1009E00080008091B10084608093B1008091B0005C
:1009F00081608093B00080917A00846080937A0057
:100A000080917A00826080937A0080917A00816080
:100A100080937A0080917A00806880937A001092A7
:100A2000C100E0918B02F0918C0282E08083E09122
:100A30008702F09188021082E0918902F0918A0287
:100A40008FEC808310929302E0918F02F0919002DC
:100A500086E08083E0918D02F0918E02808180613A
:100A60008083E0918D02F0918E0280818860808386
:100A7000E0918D02F0918E02808180688083E09108
:100A80008D02F0918E0280818F7D8083E2EAF0E01A
:100A90002491EEE8F0E084918823C9F090E0880F7B
:100AA000991FFC01EE58FF4F45915491FC01E85904
:100AB000FF4FA591B4919FB7F894FA013081822F2E
:100AC000809583238083EC91E22BEC939FBF30E0F1
:100AD000E32E30E0F32E8BE792E00E948601181699
:100AE00019060CF08FC08BE792E00E94C8008F7D42
:100AF000853409F093C085E291E00E94020368EE1C
:100B000073E080E090E00E945A028DE391E00E9441
:100B100002038BE792E00E94860118161906CCF7B3
:100B20000E942A014B018B01072E000C880B990BA8
:100B300097FF5BC00E94E1020E949902F1E08F1AC8
:100B4000910885E08816910408F053C082E591E091
:100B50000E94020368EE73E080E090E00E945A0277
:100B60008BE792E00E948601892BD1F30E942A0133
:100B7000B62ECE0101960E949C0318861F821A860B
:100B800019861C861B864CE050E06DE571E0CE01B5
:100B900007960E947B034D815E8169817A81CE0137
:100BA00007960E943D03811104C0CE0107960E9462
:100BB00069034B855C856F8178858BE792E00E94A5
:100BC0008C000E949902CE0107960E94D403CE01A8
:100BD00001960E94D4036B2DC80101970E949C07C7
:100BE0006AE070E080E090E08ECF4AE00E949D02D3
:100BF000A3CF063011051CF08AE691E07ECF012BD1
:100C000009F087CFE114F10409F465CF0E94920145
:100C1000882309F460CF0E9400005DCF833509F07E
:100C2000CEC081E891E00E94020381E991E00E9438
:100C300002030E947E04892BC1F40E947E04892B4A
:100C4000E1F36091750270917602609570957093F2
:100C5000760260937502072E000C880B990B97FFA4
:100C600039C00E94E1020E9499028BE792E00E9443
:100C7000860118161906ECF60E942A018B01AB01B9
:100C8000415051094530510508F045C02091750289
:100C9000309176022115310509F58A01FA01EE0F2E
:100CA000FF1FE85EFE4F808191810E940E0386EA5D
:100CB00091E00E940203C8010E94940720917302F0
:100CC00030917402820F932F911D90937402809340
:100CD0007302ABCF4AE00E949D02C5CF2F3F3F4F2A
:100CE000D1F401501109F801EE0FFF1FE85EFE4F2D
:100CF000808191810E940E038EEA91E00E9402039E
:100D0000C8010E94940790E0209173023091740210
:100D1000821B930BDACF063011051CF088EB91E0B3
:100D200082CF012B09F085CF60917302709174021C
:100D3000CE0101960E949C0318861F821A8619868E
:100D40001C861B864BE050E06FEC71E0CE010796ED
:100D50000E947B034D815E8169817A81CE01079675
:100D60000E943D03811104C0CE0107960E946903D1
:100D700041E050E06BED71E0CE0107960E943D032B
:100D8000811104C0CE0107960E9469034B855C85E2
:100D90006F8178858BE792E00E948C000E94990217
:100DA000CE0107960E94D403CE0101960E94D4037F
:100DB0008DED91E00E94020389EF91E038CF8334FA
:100DC00009F04BC083E192E00E94020381E991E0C7
:100DD0000E9402038BE792E00E9486011816190612
:100DE000CCF70E942A018B016150710965307105B1
:100DF00010F589E292E00E940E0301501109F801FA
:100E0000EE0FFF1FE85EFE4F808191810E940E036E
:100E10000E94990287E392E00E940E03C8010E949B
:100E20009407682F70E090E080E04AE00E949D0205
:100E30000E949902CBCF063011055CF08AE691E062
:100E40000E94020368EE73E080E090E00E945A0284
:100E5000BDCF012B09F0BECFD5CE85E492E00E9434
:100E60000203D0CEEBE7F2E01382128288EE93E029
:100E7000A0E0B0E084839583A683B7838AE091E005
:100E80009183808385EC90E09587848784EC90E063
:100E90009787868780EC90E0918B808B81EC90E047
:100EA000938B828B82EC90E0958B848B86EC90E028
:100EB000978B868B118E128E138E148E0895BB27FE
:100EC0004A3031F4992322F4BDE2909581959F4FE9
:100ED0000C946B07BB27FB015527AA27880F991F86
:100EE000AA1FA41710F0A41B83955051B9F7A05D59
:100EF000AA3308F0A95DA193009779F7B111B193D6
:100F00001192CB010C948407DC01FC01672F7191D5
:100F10007723E1F7329704C07C916D9370836291DF
:100F2000AE17BF07C8F30895F999FECF92BD81BDF2
:100F3000F89A992780B50895262FF999FECF1FBA00
:100F400092BD81BD20BD0FB6F894FA9AF99A0FBEF2
:100F5000019608950E94EC07A59F900DB49F900DF7
:100F6000A49F800D911D112408952F923F924F92BE
:100F70005F926F927F928F929F92AF92BF92CF9229
:100F8000DF92EF92FF920F931F93CF93DF93CDB732
:100F9000DEB7CA1BDB0B0FB6F894DEBF0FBECDBFAA
:100FA00009942A88398848885F846E847D848C847B
:100FB0009B84AA84B984C884DF80EE80FD800C8184
:100FC0001B81AA81B981CE0FD11D0FB6F894DEBF67
:100FD0000FBECDBFED010895A29FB001B39FC00128
:100FE000A39F700D811D1124911DB29F700D811D55
:100FF0001124911D0895A1E21A2EAA1BBB1BFD010D
:101000000DC0AA1FBB1FEE1FFF1FA217B307E407E7
:10101000F50720F0A21BB30BE40BF50B661F771F3F
:10102000881F991F1A9469F760957095809590951F
:101030009B01AC01BD01CF010895EE0FFF1F05908C
:10104000F491E02D09940F931F93CF93DF93823097
:10105000910510F482E090E0E0911A03F0911B03F7
:1010600030E020E0B0E0A0E0309799F421153105A0
:1010700009F44AC0281B390B24303105D8F58A8180
:101080009B816115710589F1FB0193838283FE01C8
:1010900011C0408151810281138148175907E0F046
:1010A0004817590799F4109761F012960C9312970C
:1010B00013961C933296CF01DF91CF911F910F9120
:1010C000089500931A0310931B03F4CF21153105E3
:1010D00051F04217530738F0A901DB019A01BD0115
:1010E000DF01F801C1CFEF01F9CF90931B0380938B
:1010F0001A03CDCFFE01E20FF31F8193919322508B
:10110000310939832883D7CF2091180330911903EF
:10111000232B41F4209102013091030130931903F4
:101120002093180320910001309101012115310510
:1011300041F42DB73EB74091040150910501241BA5
:10114000350BE0911803F0911903E217F307A0F4AF
:101150002E1B3F0B2817390778F0AC014E5F5F4F0D
:101160002417350748F04E0F5F1F50931903409323
:101170001803819391939FCFF0E0E0E09CCFCF9351
:10118000DF930097E9F0FC01329713821282A0915D
:101190001A03B0911B03ED0130E020E01097A1F499
:1011A00020813181820F931F209118033091190300
:1011B0002817390709F061C0F0931903E093180369
:1011C000DF91CF910895EA01CE17DF07E8F54A8154
:1011D0005B819E0141155105B1F7E901FB83EA836B
:1011E00049915991C40FD51FEC17FD0761F4808117
:1011F00091810296840F951FE901998388838281EA
:1012000093819B838A83F0E0E0E012968D919C911C
:1012100013970097B9F52D913C911197CD01029646
:10122000820F931F20911803309119032817390753
:1012300039F6309751F510921B0310921A03B093B0
:101240001903A0931803BCCFD383C283408151817B
:10125000840F951FC817D90761F44E5F5F4F8881CF
:101260009981480F591F518340838A819B819383C1
:1012700082832115310509F0B0CFF0931B03E09371
:101280001A039ECFFD01DC01C0CF13821282D7CF9B
:10129000B0E0A0E0EEE4F9E00C94B7078C01009711
:1012A00051F4CB010E9423088C01C801CDB7DEB7F1
:1012B000E0E10C94D307FC01E60FF71F9C012250DC
:1012C0003109E217F30708F49DC0D901CD91DC91F3
:1012D0001197C617D70798F0C530D10530F3CE0166
:1012E00004978617970708F3C61BD70B2297C1935D
:1012F000D1936D937C93CF010E94BF08D6CF5B0141
:10130000AC1ABD0A4C018C0E9D1EA0911A03B0911F
:101310001B03512C412CF12CE12C109731F58091BD
:101320001803909119038815990509F05CC04616B9
:10133000570608F058C08091000190910101009774
:1013400041F48DB79EB74091040150910501841B73
:10135000950BE817F90708F055C0F0931903E093CF
:101360001803F90171836083A0CF8D919C9111972F
:1013700012966C90129713967C901397A815B90546
:1013800059F56C0142E0C40ED11CCA14DB0420F1F3
:10139000AC014A195B09DA011296159780F0628256
:1013A000738251834083D9016D937C93E114F104DE
:1013B00071F0D7011396FC93EE93129776CF229695
:1013C0008C0F9D1FF90191838083F301EFCFF09380
:1013D0001B03E0931A0369CF4816590608F42C0141
:1013E0007D01D3019ACFCB010E9423087C01009795
:1013F00049F0AE01B8010E94050AC8010E94BF0869
:10140000870153CF10E000E050CFFB01DC0102C0A8
:1014100001900D9241505040D8F70895FB01DC0136
:1014200001900D920020E1F70895F894FFCF00009D
:101430001C03800000000000C8018C00B9001502E8
:101440008601C800DC00540258025E026302680292
:101450000D0A004564697420796F75722070726F8F
:101460006475637420636F73747300456E74657282
:101470002070726F64637574206E756D62657200A2
:10148000456E74657220636F737400456E74657287
:101490006420636F73743A00496E76616C696420EE
:1014A00050726F64756374206E756D62657200535F
:1014B000686F70696E67207374617274656400454B
:1014C0006E7465722070726F64756374206E756DD2
:1014D00062657200202041646465640020205265CA
:1014E0006D6F76656400496E76616C696420707218
:1014F0006F64756374206E756D62657200546F74ED
:10150000616C5F636F73743A00240050686F6E659E
:1015100020706179206E756D6265723A31323334B4
:10152000353637383930005468616E6B20796F7505
:1015300020666F722073686F70696E672E2E2E2082
:1015400000636865636B2070726F647563742064F8
:10155000657461696C730050726F64756374204EBA
:10156000616D653A0050726F6475637420436F73E8
:10157000743A00496E76616C696420436F6D6D61E9
:1015800064004F696C00537567617200526963654E
:0C1590000053616C74004472696E6B00C3
:107E0000112484B714BE81FFF0D085E080938100F7
:107E100082E08093C00088E18093C10086E0809377
:107E2000C20080E18093C4008EE0C9D0259A86E02C
:107E300020E33CEF91E0309385002093840096BBD3
:107E4000B09BFECF1D9AA8958150A9F7CC24DD24C4
:107E500088248394B5E0AB2EA1E19A2EF3E0BF2EE7
:107E6000A2D0813461F49FD0082FAFD0023811F036
:107E7000013811F484E001C083E08DD089C08234E0
:107E800011F484E103C0853419F485E0A6D080C0E4
:107E9000853579F488D0E82EFF2485D0082F10E0AE
:107EA000102F00270E291F29000F111F8ED06801E7
:107EB0006FC0863521F484E090D080E0DECF843638
:107EC00009F040C070D06FD0082F6DD080E0C81688
:107ED00080E7D80618F4F601B7BEE895C0E0D1E017
:107EE00062D089930C17E1F7F0E0CF16F0E7DF06D8
:107EF00018F0F601B7BEE89568D007B600FCFDCFD4
:107F0000A601A0E0B1E02C9130E011968C91119780
:107F100090E0982F8827822B932B1296FA010C0160
:107F200087BEE89511244E5F5F4FF1E0A038BF0790
:107F300051F7F601A7BEE89507B600FCFDCF97BE46
:107F4000E89526C08437B1F42ED02DD0F82E2BD052
:107F50003CD0F601EF2C8F010F5F1F4F84911BD097
:107F6000EA94F801C1F70894C11CD11CFA94CF0C13
:107F7000D11C0EC0853739F428D08EE10CD085E9AC
:107F80000AD08FE07ACF813511F488E018D01DD067
:107F900080E101D065CF982F8091C00085FFFCCF94
:107FA0009093C60008958091C00087FFFCCF809118
:107FB000C00084FD01C0A8958091C6000895E0E648
:107FC000F0E098E1908380830895EDDF803219F02E
:107FD00088E0F5DFFFCF84E1DECF1F93182FE3DFCA
:107FE0001150E9F7F2DF1F91089580E0E8DFEE27F6
:047FF000FF270994CA
:027FFE00040479
:00000001FF
