:10098A004C6F61645F313A004C6F61645F323A00C8
:08099A004F4E20004F464600BD
:10088F00C292C2931209A27F011209CD7F80120971
:10089F00CD7BFF7A09798A1209007FC01209CD7BBF
:0808AF00FF7A09799212090099
:1008B7001209C28F087F8F1209CDAF081209D5E53B
:1008C70008B43110D2927F881209CD7BFF7A09795B
:1008D7009A120900E508B43210C2927F881209CD36
:1008E7007BFF7A09799E120900E508B43302D29397
:0708F700E508B434BBC29315
:0208FE0080B7C1
:10080000C2A0D2A1D2A2D2A320A40630A4FD7F31DF
:100810002220A50630A5FD7F322220A60630A6FDA7
:100820007F3322D2A0C2A1D2A2D2A320A40630A498
:10083000FD7F342220A50630A5FD7F352220A606A7
:1008400030A6FD7F3622D2A0D2A1C2A2D2A320A47C
:100850000630A4FD7F372220A50630A5FD7F382273
:1008600020A60630A6FD7F3922D2A0D2A1D2A2C2F4
:10087000A320A40630A4FD7F2A2220A50630A5FDD2
:0F0880007F302220A60630A6FD7F23227F6E2226
:0A09C2007F6EBF6E0512080080F87A
:0109CC002208
:0809CD00C29012092FC2912211
:0809D500D29012092FC29122F9
:1009A2007F381209CD7F011209CD7F0E1209CD7F4A
:0409B200060209CD63
:08092F008FB0D2917F017E0020
:10093700E4FBFAD3EB9FEE6480F8EA6480985015E5
:10094700E4FCFD0DBD00010CBC03F8BDE9F50BBBD4
:0509570000010A80DE32
:01095C002278
:060900008B098A0A890B35
:10090600E4F50CF50DF50CF50DAB09AA0AA90B8556
:100916000D82850C8312095DFF600D1209D5050D48
:08092600E50D70E5050C80E110
:01092E0022A6
:030000000209B63C
:0C09B600787FE4F6D8FD75810D02088FF3
:10095D00BB010CE58229F582E5833AF583E022504F
:10096D0006E92582F8E622BBFE06E92582F8E22299
:0D097D00E58229F582E5833AF583E49322B3
:00000001FF
