:1008CB0057656C636F6D6520746F002056494954F2
:0108DB00001C
:10085D001208B77F011208E87F831208E87BFF7A40
:10086D000879CB1208007FC51208E87BFF7A08795A
:0D087D00D61208007F647E0012083780D676
:0808E800C2B012082FC2B122B8
:0808F000D2B012082FC2B122A0
:1008B7007F381208E87F011208E87F0E1208E87FE8
:0408C700060208E835
:08082F008FA0D2B17F017E0011
:10083700E4FBFAD3EB9FEE6480F8EA6480985015E6
:10084700E4FCFD0DBD00010CBC03F8BDE9F50BBBD5
:0508570000010A80DE33
:01085C002279
:060800008B088A09890A39
:10080600E4F50BF50CF50BF50CAB08AA09A90A855E
:100816000C82850B8312088AFF600D1208F0050C06
:08082600E50C70E5050B80E113
:01082E0022A7
:030000000208DC17
:0C08DC00787FE4F6D8FD75810C02085D01
:10088A00BB010CE58229F582E5833AF583E0225023
:10089A0006E92582F8E622BBFE06E92582F8E2226D
:0D08AA00E58229F582E5833AF583E4932287
:00000001FF
