:020000040000FA
:100000000C94DF000C9407010C9407010C94070179
:100010000C9407010C9407010C9407010C94070140
:100020000C9407010C9407010C9407010C94070130
:100030000C9407010C9407010C9407010C94070120
:100040000C9456050C9407010C9424050C94FE04A2
:100050000C9407010C9407010C9407010C94070100
:100060000C9407010C94070100407A10F35A00A089
:10007000724E18090010A5D4E80000E87648170071
:1000800000E40B54020000CA9A3B000000E1F505B1
:10009000000080969800000040420F000000A086FB
:1000A00001000000102700000000E803000000002D
:1000B0006400000000000A000000000001000000D1
:1000C00000002C76D888DC674F0823DFC1DFAE59EB
:1000D000E1B1B796E5E3E453C63AE651997696E87E
:1000E000E6C28426EB898C9B62ED407C6FFCEFBC02
:1000F0009C9F40F2BAA56FA5F490055A2AF75C932D
:100100006B6CF9676DC11BFCE0E40D47FEF520E662
:10011000B500D0ED902E0300943577050080841E45
:10012000080000204E0A000000C80C333333330FA0
:10013000986E12831141EF8D2114893BE65516CF3D
:10014000FEE6DB18D1844B381BF77C1D901DA4BB49
:10015000E424203284725E228100C9F124ECA1E5FE
:100160003D2700000000240027002A0000000000B6
:10017000250028002B0000000008000201000003F9
:100180000407000000000000000000000000230041
:1001900026002900040404040404040402020202E8
:1001A000020203030303030301020408102040803A
:1001B000010204081020010204081020A0051124E7
:1001C0001FBECFEFD8E0DEBFCDBF21E0A6E2B1E099
:1001D00001C01D92A33EB207E1F711E0A0E0B1E03B
:1001E000ECE0FCE102C005900D92A632B107D9F710
:1001F00010E0CFEDD0E004C02197FE010E940C0C6E
:10020000CE3DD107C9F70E94ED050C94040E0C9465
:100210000000CF92DF92EF92FF92CF93DF93B091E5
:10022000D301A0E08111AB2F8091D40190E0880F21
:10023000991FAC0146575E4FC090D901D090DA01AA
:10024000E090DB01F090DC0130E020E0FA01C591A4
:10025000D491E881B90190E080E0EB23EA130AC071
:100260002F5F3F4F6C157D058E059F0578F36FEF6F
:100270007FEFCB01DF91CF91FF90EF90DF90CF9098
:100280000895AF92BF92CF92DF92EF92FF920F93B9
:100290001F93CF93DF936C017B018B01040F151F1C
:1002A000EB015E01AE18BF08C017D10759F0699184
:1002B000D601ED91FC910190F081E02DC6010995E8
:1002C000892B79F7C501DF91CF911F910F91FF9095
:1002D000EF90DF90CF90BF90AF900895FC01538DC9
:1002E000448D252F30E0842F90E0821B930B541710
:1002F00010F0CF96089501970895FC01918D828D9D
:10030000981761F0A28DAE0FBF2FB11D5D968C9135
:10031000928D9F5F9F73928F90E008958FEF9FEF74
:100320000895FC01918D828D981731F0828DE80F30
:10033000F11D858D90E008958FEF9FEF0895FC01EA
:10034000918D228D892F90E0805C9F4F821B9109B7
:100350008F73992708958FE291E00E949F0121E019
:10036000892B09F420E0822F089580E090E0892B0A
:1003700029F00E94AB0181110C9400000895FC014A
:10038000A48DA80FB92FB11DA35ABF4F2C91848DF6
:1003900090E001968F739927848FA689B7892C9353
:1003A000A089B1898C91837080648C93938D848DA6
:1003B000981306C00288F389E02D80818F7D8083A9
:1003C0000895EF92FF920F931F93CF93DF93EC0169
:1003D00081E0888F9B8D8C8D98131AC0E889F989EC
:1003E000808185FF15C09FB7F894EE89FF896083EF
:1003F000E889F98980818370806480839FBF81E070
:1004000090E0DF91CF911F910F91FF90EF900895B1
:10041000F62E0B8D10E00F5F1F4F0F731127E02E8C
:100420008C8D8E110CC00FB607FCFACFE889F989C4
:10043000808185FFF5CFCE010E94BF01F1CFEB8D0A
:10044000EC0FFD2FF11DE35AFF4FF0829FB7F89498
:100450000B8FEA89FB8980818062CFCFCF93DF93B6
:10046000EC01888D8823B9F0AA89BB89E889F989CC
:100470008C9185FD03C0808186FD0DC00FB607FC01
:10048000F7CF8C9185FFF2CF808185FFEDCFCE0134
:100490000E94BF01E9CFDF91CF91089590E0FC0168
:1004A000EA58FE4F2491FC01E855FE4F3491FC01BF
:1004B000EC56FE4FE491EE23C9F0222339F02330AD
:1004C00001F1A8F4213019F1223029F1F0E0EE0F0A
:1004D000FF1FE459FE4FA591B4918FB7F894EC91AA
:1004E000611126C030953E233C938FBF089527307D
:1004F000A9F02830C9F0243049F7809180008F7D21
:1005000003C0809180008F7780938000DFCF84B517
:100510008F7784BDDBCF84B58F7DFBCF8091B0001A
:100520008F778093B000D2CF8091B0008F7DF9CFCC
:100530003E2BDACFCF93DF9390E0FC01E855FE4FDE
:1005400024918C569E4FFC0184918823D1F090E039
:10055000880F991FFC01EE59FE4FA591B491FC0143
:10056000E459FE4FC591D491623071F49FB7F8946D
:100570003C91822F809583238C93E8812E2B2883B6
:100580009FBFDF91CF9108958FB7F894EC912E2BF8
:100590002C938FBFF6CF3FB7F894809127019091AD
:1005A0002801A0912901B0912A0126B5A89B05C078
:1005B0002F3F19F00196A11DB11D3FBFBA2FA92FE2
:1005C000982F8827BC01CD01620F711D811D911DDF
:1005D00042E0660F771F881F991F4A95D1F708954B
:1005E0008F929F92AF92BF92CF92DF92EF92FF9243
:1005F0004B015C010E94CB026B017C010E94CB028B
:100600006C197D098E099F09683E7340810591052B
:10061000A8F321E0821A9108A108B10888EEC80E5B
:1006200083E0D81EE11CF11C81149104A104B104E3
:1006300029F7FF90EF90DF90CF90BF90AF909F9001
:100640008F900895CF92DF92EF92FF920F931F93B6
:10065000CF93DF93CDB7DEB7C054D1400FB6F89437
:10066000DEBF0FBECDBF2FB7F89480912B019091C4
:100670002C01A0912D01B0912E012FBF4091D501E9
:100680005091D6016091D7017091D8018C019D01E4
:10069000041B150B260B370BB901A801403D574031
:1006A0006105710590F48091DD01C05CDE4F0FB6ED
:1006B000F894DEBF0FBECDBFDF91CF911F910F9198
:1006C000FF90EF90DF90CF9008958093D5019093A5
:1006D000D601A093D701B093D8011092D001109207
:1006E000CF011092CE011092CD011092CC0162E0A8
:1006F0008091D1010E949A0261E070E080E090E078
:100700000E94F00261E08091D1010E949A0260E0B3
:100710008091D1010E944E028091D2018551823098
:1007200020F58BE291E10197F1F762E08091D10130
:100730000E949A028091DE0190E08230910538F0AB
:10074000880F991F880F991F05970197F1F7F89463
:1007500080E00E9409016F3F7F4F8F4F9F4F61F4F0
:100760001092DD01789480E0A0CF64E170E080E039
:1007700090E00E94F002D9CF81E00E9409016F3F12
:100780007F4F8F4F9F4F61F38E010F5F1F4F6E01A1
:100790008FEBC81A8EEFD80A780180E00E94090119
:1007A000F701608371838283938381E00E94090152
:1007B000F7016483758386839783F8E0EF0EF11C5D
:1007C000EC14FD0451F7789430E020E0F801C0808B
:1007D000D180E280F3804481558166817781FFEF8B
:1007E000CF16DF06EF06FF0631F04F3F8FEF5807B9
:1007F0006807780719F41092DD01B5CFF90183E09D
:10080000F595E7958A95E1F7E453FE4F8081880FCF
:10081000C416D506E606F70610F180832F5F3F4F1A
:10082000085F1F4F2832310589F64091D001209191
:10083000CC018091CD01280F3327331F8091CE0149
:10084000280F311D8091CF01820F932F911D992781
:100850004817190681F681E08093DD0126CF81607B
:10086000DCCF0F931F93CF93DF93EC0188819981A5
:10087000009759F02A813B812617370730F081E035
:10088000DF91CF911F910F9108958B016F5F7F4F83
:100890000E94370D009759F0998388831B830A8340
:1008A0002C813D81232B59F7FC011082E8CF80E099
:1008B000E7CFEF92FF920F931F93CF93DF936115D2
:1008C000710541F480E0DF91CF911F910F91FF906E
:1008D000EF90089541155105B1F07B01EC010C81B9
:1008E0001D81040F151FB8010E943104882351F3A4
:1008F000288139818C819D81B701820F931F0E94CD
:10090000FD0D1D830C8381E0DECFCF93DF93EC01DF
:1009100088819981009711F00E94AE0C198218828B
:100920001D821C821B821A82DF91CF910895EF9263
:10093000FF920F931F93CF93DF93EC017B018A010A
:10094000BA010E94310481110BC0CE010E948504BE
:10095000CE01DF91CF911F910F91FF90EF900895FD
:100960001D830C83B701888199810E94FD0DF0CF12
:10097000EF92FF920F931F93CF93DF93CDB7DEB724
:10098000A1970FB6F894DEBF0FBECDBF7C01CB019F
:10099000BA01F70111821082138212821582148229
:1009A0008E010F5F1F4F22E044E00E94EF07009787
:1009B000C9F0FC0101900020E9F73197AF01481B15
:1009C000590BBC01C7010E949704A1960FB6F89479
:1009D000DEBF0FBECDBFDF91CF911F910F91FF9072
:1009E000EF900895C7010E948504EFCFFC0180813C
:1009F0009181009711F00C94AE0C08951F920F9204
:100A00000FB60F9211242F933F934F935F936F93E1
:100A10007F938F939F93AF93BF93EF93FF938FE257
:100A200091E00E94BF01FF91EF91BF91AF919F9123
:100A30008F917F916F915F914F913F912F910F9087
:100A40000FBE0F901F9018951F920F920FB60F9226
:100A500011242F938F939F93EF93FF93E0913F0186
:100A6000F09140018081E0914501F091460182FDC5
:100A70001BC09081809148018F5F8F732091490145
:100A8000821741F0E0914801F0E0E15DFE4F958F63
:100A900080934801FF91EF919F918F912F910F903B
:100AA0000FBE0F901F9018958081F4CF1F920F9268
:100AB0000FB60F9211242F933F938F939F93AF9371
:100AC000BF9380912B0190912C01A0912D01B091A9
:100AD0002E013091260123E0230F2D3758F5019682
:100AE000A11DB11D2093260180932B0190932C0111
:100AF000A0932D01B0932E018091270190912801A0
:100B0000A0912901B0912A010196A11DB11D8093E8
:100B1000270190932801A0932901B0932A01BF9146
:100B2000AF919F918F913F912F910F900FBE0F909A
:100B30001F90189526E8230F0296A11DB11DD2CF54
:100B4000EFE2F1E01382128288EE93E0A0E0B0E0E1
:100B500084839583A683B7838AE091E09183808321
:100B600085EC90E09587848784EC90E09787868772
:100B700080EC90E0918B808B81EC90E0938B828B6A
:100B800082EC90E0958B848B86EC90E0978B868B43
:100B9000118E128E138E148EACECB1E082E015969D
:100BA0008C9315978BE016968C931697EAEAF1E0F2
:100BB000E4911796EC931797E6E9F1E0E491189623
:100BC000EC93189740E85EE360E070E01D964D936B
:100BD0005D936D937C9350970895CF93DF93CDB73A
:100BE000DEB72C970FB6F894DEBF0FBECDBF78945A
:100BF00084B5826084BD84B5816084BD85B5826022
:100C000085BD85B5816085BD80916E0081608093D2
:100C10006E0010928100809181008260809381003B
:100C2000809181008160809381008091800081604B
:100C3000809380008091B10084608093B1008091A6
:100C4000B00081608093B00080917A0084608093CE
:100C50007A0080917A00826080937A0080917A0095
:100C6000816080937A0080917A00806880937A0016
:100C70001092C100E0913F01F091400182E0808339
:100C8000E0913B01F0913C011082E0913D01F09137
:100C90003E018FEC808310924701E0914301F09177
:100CA000440186E08083E0914101F091420180811E
:100CB00080618083E0914101F091420180818860F0
:100CC0008083E0914101F0914201808180688083BE
:100CD000E0914101F091420180818F7D808362E04B
:100CE0008091D1010E949A022FB7F89480912B0134
:100CF00090912C01A0912D01B0912E012FBF805D0C
:100D00009740A109B1098093D5019093D601A09392
:100D1000D701B093D80187E38093DE0161E088E0DA
:100D20000E949A0200E010E064EF71E080E090E041
:100D30000E94F0020E942203882349F08091D20190
:100D40008B3028F08D3050F085518230C0F1812CED
:100D5000912C20ECA22E2FE7B22E1EC06091CD0167
:100D600070E090E080E00E94460A2DEC3CEC4CECF8
:100D70005DE30E94A50A6B017C016091CC0170E0EB
:100D800090E080E00E94460A9B01AC01C701B601D9
:100D90000E949B0B4B015C010E942203882341F0BF
:100DA0008091D2018C3009F4F5C0D8F48B3091F1E8
:100DB000C12CD12C80ECE82E8FE7F82E55C0609125
:100DC000CC017091CD0176276727762790E080E0EF
:100DD0000E94440A2DEC3CEC4CEC5DE30E94A50A19
:100DE000D9CF8551823020F77090CE01672D70E009
:100DF000762F662766277F778091CF01682B90E05A
:100E000080E00E94440A2DEC3CEC4CEC5DE30E9437
:100E1000A50ADCC06091CE0170E090E080E00E9405
:100E2000440A2B013C01F090CF01F7FE0AC0AC014F
:100E30009B0160E070E080E89FEB0E949A0B2B0121
:100E40003C016F2D6F7070E090E080E00E94460AD8
:100E50002DEC3CEC4CEC5DE30E94A50AA301920151
:100E60000E949B0B6B017C01B701A601CE0101968C
:100E70000E94B80418861F821A8619861C861B8653
:100E800045E050E068E171E0CE0107960E949704CA
:100E90004D815E8169817A81CE0107960E94590455
:100EA000811104C0CE0107960E9485044B855C85A4
:100EB0006F8178858FE291E00E944101CE01079613
:100EC0000E94F604CE0101960E94F604B501A40129
:100ED000CE0101960E94B80418861F821A861986D0
:100EE0001C861B8644E050E06EE171E0CE0107965F
:100EF0000E9497044D815E8169817A81CE010796B7
:100F00000E945904811104C0CE0107960E948504F5
:100F10004B855C856F8178858FE291E00E9441016D
:100F200042E050E063E271E08FE291E00E94410113
:100F3000CE0107960E94F604CE0101960E94F604A7
:100F400020E030E044E352E4C701B6010E94070C00
:100F50001816A4F461E088E00E944E0268EE73E087
:100F600080E090E00E94F00260E088E00E944E0283
:100F700068EE73E080E090E00E94F0020115110538
:100F800009F4D2CE0E94AB01882309F4CDCE0E9491
:100F90000000CACE7090CE01672D70E090E080E036
:100FA0000E94440A6B017C016091CF016F7070E078
:100FB00090E080E00E94460A2DEC3CEC4CEC5DE3B6
:100FC0000E94A50AA70196010E949B0B6B017C0160
:100FD00077FE4ACFF7FAF094F7F8F09445CFEF9206
:100FE0000F931F93CF93DF93E80134E047FD34E183
:100FF000042E000C550B57FF03C051954195510924
:10100000E32E022F242FAE010E940D08CE01DF91A6
:10101000CF911F910F91EF900895A9E0B0E0E3E127
:10102000F8E00C94690B6A01F22EB02E102FFBE34E
:10103000AF2EA01608F41BE31F5F012F27E0AE01BF
:101040004F5F5F4F0E946C09BC018981982F997096
:10105000913009F43FC09BE2E1FC04C09E2D9170E9
:10106000E0FC3AC05E2D5071E82FE87083FF46C067
:1010700084E0911101C083E0EF2DE81B8F1508F08B
:10108000E0E0D6018E2F20E2552351F1992329F07B
:10109000D6019C93C60101966C0196012D5F3F4FCE
:1010A000E2FE24C08EE4D6018C9391E411969C93C9
:1010B000119712968C93D9018E2F90E281111BC04B
:1010C000E20FF32FF11D10828EEF9FEF2996ECE0D7
:1010D0000C94850B9DE2C6CF90E2C4CF2D93815036
:1010E0008111FCCFCE0ED11CE0E0D0CF8EE6D60130
:1010F0008C9391E6DBCF9D938150E0CF482F4470D5
:1011000082FF3DC084E0911101C083E08F1510F48F
:10111000EF2DE81BD6018E2F20E2552309F19923EC
:1011200029F0D6019C93C60101966C0196012D5FB2
:101130003F4FE2FE1BC089E4D6018C938EE41196EA
:101140008C93119786E412968C93D9018E2F90E29E
:10115000882309F4B5CF9D938150FACF2D93815008
:101160008111FCCFCE0ED11CE0E0D9CF89E6D601AB
:101170008C938EE611968C93119786E6E4CF9B01B3
:1011800077FF02C030E020E0A1E0B0E0911102C0A2
:10119000B0E0A0E0F9013196AE0FBF1F8B2C912C6F
:1011A000BB2009F461C05401EFEFAE1ABE0AAA0DCC
:1011B000BB1DFA161B0619F014F04F2D4A1B5111D6
:1011C00088C0E3FC59C07601A42FB0E2A1114FC042
:1011D000C40ED11C992309F45BC040E0D6011196DE
:1011E000F60190836D01552309F448C0012F060FC5
:1011F0009A81582F507184FF03C0913309F4015034
:1012000010160CF047C0093008F008E0EEE2FE2EA0
:101210005B01A01AB10885019194819491082F3F38
:10122000320729F4D601FC92F60131966F0162175C
:10123000730794F1021713077CF5DB01A21BB30BB4
:10124000AA24A394B12CAC0EBD1EAA0DBB1D1196F1
:101250008C9121503109D601119628153905F4F0E9
:10126000F60180836D01DBCFB12CA12CA0CFF7015B
:10127000B1937F01A150AACF9111B0CFD601942F85
:1012800050E302C05D9391509111FCCFC40ED11C6C
:1012900040E0ACCF01E0BACF80E3DBCF6217730749
:1012A00031F4963388F4953311F4552369F0F6013F
:1012B0008083FD01842F90E2811108C0A40FB11D2D
:1012C0001C9290E080E002CF81E3F1CF91938150B6
:1012D000F3CF911183CF8ACF283008F027E033274E
:1012E000DA01990F311D87FD916000966105710546
:1012F00039F432602E5F3D9330E32A95E1F708958B
:101300009F3F30F080387105610509F03C5F3C5F1C
:101310003D93913008F08068911DDF93CF931F9328
:101320000F93FF92EF92192F987F9695E92F96953C
:101330009695E90FFF27EE53FF4F99273327EE24A9
:10134000FF24A701E70105900894079428F4360FBD
:10135000E71EF81E491F511D660F771F881F991F32
:101360000694A1F70590079428F4E70EF81E491F8C
:10137000561FC11D770F881F991F661F0694A1F77E
:101380000590079428F4F80E491F561FC71FD11D5A
:10139000880F991F661F771F0694A1F70590079481
:1013A00020F4490F561FC71FD81F990F661F771FBC
:1013B000881F0694A9F784911095177041F0D6956F
:1013C000C79557954795F794E7941A95C1F7E8E6BE
:1013D000F0E068941590159135916591959105907F
:1013E0007FE27395E118F10A430B560BC90BD00944
:1013F000C0F7E10CF11E431F561FC91FD01D7EF41C
:10140000703311F48A95E6CFE894015030F0080F5C
:101410000AF40027021708F4202F2395022F7A33AD
:1014200028F079E37D932A95E9F710C07D932A95FA
:1014300089F6069497956795379517951794E1184F
:10144000F10A430B560BC90BD00998F023957E91F6
:1014500073957A3308F070E37C932013B8F77E918C
:1014600070617D9330F0839571E37D9370E32A95ED
:10147000E1F71124EF90FF900F911F91CF91DF9131
:10148000992787FD90950895E89409C097FB3EF44D
:1014900090958095709561957F4F8F4F9F4F9923C1
:1014A000A9F0F92F96E9BB279395F695879577953F
:1014B0006795B795F111F8CFFAF4BB0F11F460FFFF
:1014C0001BC06F5F7F4F8F4F9F4F16C0882311F057
:1014D00096E911C0772321F09EE8872F762F05C06B
:1014E000662371F096E8862F70E060E02AF09A9506
:1014F000660F771F881FDAF7880F9695879597F9FB
:101500000895990F0008550FAA0BE0E8FEEF161694
:101510001706E807F907C0F012161306E407F507E7
:1015200098F0621B730B840B950B39F40A2661F05B
:10153000232B242B252B21F408950A2609F4A140FE
:10154000A6958FEF811D811D08950E94B80A0C9405
:10155000290B0E941B0B38F00E94220B20F09523D0
:1015600011F00C94120B0C94180B11240C945D0BBD
:101570000E943A0B70F3959FC1F3950F50E0551FF1
:10158000629FF001729FBB27F00DB11D639FAA27D8
:10159000F00DB11DAA1F649F6627B00DA11D661F27
:1015A000829F2227B00DA11D621F739FB00DA11D48
:1015B000621F839FA00D611D221F749F3327A00D02
:1015C000611D231F849F600D211D822F762F6A2F9E
:1015D00011249F5750409AF0F1F088234AF0EE0F03
:1015E000FF1FBB1F661F771F881F91505040A9F730
:1015F0009E3F510580F00C94120B0C945D0B5F3FE5
:10160000E4F3983ED4F3869577956795B795F7956B
:10161000E7959F5FC1F7FE2B880F911D96958795E3
:1016200097F9089597F99F6780E870E060E0089562
:101630009FEF80EC089500240A94161617061806EA
:101640000906089500240A941216130614060506C6
:101650000895092E0394000C11F4882352F0BB0F57
:1016600040F4BF2B11F460FF04C06F5F7F4F8F4FBA
:101670009F4F089557FD9058440F551F59F05F3FF5
:1016800071F04795880F97FB991F61F09F3F79F0A4
:1016900087950895121613061406551FF2CF469526
:1016A000F1DF08C0161617061806991FF1CF8695A8
:1016B0007105610508940895E894BB27662777278C
:1016C000CB0197F908952F923F924F925F926F92BC
:1016D0007F928F929F92AF92BF92CF92DF92EF92C2
:1016E000FF920F931F93CF93DF93CDB7DEB7CA1B43
:1016F000DB0B0FB6F894DEBF0FBECDBF09942A886E
:10170000398848885F846E847D848C849B84AA8415
:10171000B984C884DF80EE80FD800C811B81AA81A2
:10172000B981CE0FD11D0FB6F894DEBF0FBECDBF6D
:10173000ED0108955058BB27AA270E94B20B0C94C4
:10174000290B0E941B0B38F00E94220B20F039F469
:101750009F3F19F426F40C94180B0EF4E095E7FB68
:101760000C94120BE92F0E943A0B58F3BA17620738
:1017700073078407950720F079F4A6F50C945C0BA9
:101780000EF4E0950B2EBA2FA02D0B01B90190019C
:101790000C01CA01A0011124FF27591B99F0593FE0
:1017A00050F4503E68F11A16F040A22F232F342F28
:1017B0004427585FF3CF469537952795A795F04076
:1017C0005395C9F77EF41F16BA0B620B730B840B8B
:1017D000BAF09150A1F0FF0FBB1F661F771F881F43
:1017E000C2F70EC0BA0F621F731F841F48F487959B
:1017F00077956795B795F7959E3F08F0B0CF93958D
:10180000880F08F09927EE0F9795879508950E9405
:10181000810A08F48FEF0895EE0FFF1F0590F491F1
:10182000E02D09940F931F93CF93DF93823091059E
:1018300010F482E090E0E091E101F091E20130E00B
:1018400020E0B0E0A0E0309799F42115310509F4CB
:101850004AC0281B390B24303105D8F58A819B8179
:101860006115710589F1FB0193838283FE0111C02B
:10187000408151810281138148175907E0F04817D0
:10188000590799F4109761F012960C9312971396DA
:101890001C933296CF01DF91CF911F910F91089544
:1018A0000093E1011093E201F4CF2115310551F0CD
:1018B0004217530738F0A901DB019A01BD01DF018E
:1018C000F801C1CFEF01F9CF9093E2018093E101DC
:1018D000CDCFFE01E20FF31F819391932250310986
:1018E00039832883D7CF2091DF013091E001232B6A
:1018F00041F420910201309103013093E0012093E3
:10190000DF0120910001309101012115310541F4E1
:101910002DB73EB74091040150910501241B350BB2
:10192000E091DF01F091E001E217F307A0F42E1B34
:101930003F0B2817390778F0AC014E5F5F4F241733
:10194000350748F04E0F5F1F5093E0014093DF01D1
:10195000819391939FCFF0E0E0E09CCFCF93DF9312
:101960000097E9F0FC01329713821282A091E10105
:10197000B091E201ED0130E020E01097A1F4208168
:101980003181820F931F2091DF013091E0012817F0
:10199000390709F061C0F093E001E093DF01DF91C6
:1019A000CF910895EA01CE17DF07E8F54A815B8100
:1019B0009E0141155105B1F7E901FB83EA83499185
:1019C0005991C40FD51FEC17FD0761F480819181F7
:1019D0000296840F951FE901998388838281938100
:1019E0009B838A83F0E0E0E012968D919C9113979F
:1019F0000097B9F52D913C911197CD010296820F78
:101A0000931F2091DF013091E0012817390739F643
:101A1000309751F51092E2011092E101B093E0018C
:101A2000A093DF01BCCFD383C28340815181840F57
:101A3000951FC817D90761F44E5F5F4F8881998160
:101A4000480F591F518340838A819B8193838283EE
:101A50002115310509F0B0CFF093E201E093E101E7
:101A60009ECFFD01DC01C0CF13821282D7CFB0E040
:101A7000A0E0EDE3FDE00C94650B8C01009751F4C0
:101A8000CB010E94120C8C01C801CDB7DEB7E0E19A
:101A90000C94810BFC01E60FF71F9C0122503109C9
:101AA000E217F30708F49DC0D901CD91DC9111979D
:101AB000C617D70798F0C530D10530F3CE0104978B
:101AC0008617970708F3C61BD70B2297C193D193AC
:101AD0006D937C93CF010E94AE0CD6CF5B01AC1A04
:101AE000BD0A4C018C0E9D1EA091E101B091E20156
:101AF000512C412CF12CE12C109731F58091DF0114
:101B00009091E0018815990509F05CC046165706CA
:101B100008F058C08091000190910101009741F4B4
:101B20008DB79EB74091040150910501841B950B20
:101B3000E817F90708F055C0F093E001E093DF01E2
:101B4000F90171836083A0CF8D919C9111971296BA
:101B50006C90129713967C901397A815B90559F5B8
:101B60006C0142E0C40ED11CCA14DB0420F1AC01AC
:101B70004A195B09DA011296159780F06282738226
:101B800051834083D9016D937C93E114F10471F08A
:101B9000D7011396FC93EE93129776CF22968C0F73
:101BA0009D1FF90191838083F301EFCFF093E20150
:101BB000E093E10169CF4816590608F42C017D0134
:101BC000D3019ACFCB010E94120C7C01009749F0FF
:101BD000AE01B8010E94F40DC8010E94AE0C87014D
:101BE00053CF10E000E050CFFB01DC0102C00190B8
:101BF0000D9241505040D8F70895FB01DC0101904F
:101C00000D920020E1F70895F894FFCF0000E30162
:101C1000800000000000E10141016E012E029F01E1
:101C20007D01910174656D703A0048756D3A000D43
:021C30000A00A8
:107E0000112484B714BE81FFF0D085E080938100F7
:107E100082E08093C00088E18093C10086E0809377
:107E2000C20080E18093C4008EE0C9D0259A86E02C
:107E300020E33CEF91E0309385002093840096BBD3
:107E4000B09BFECF1D9AA8958150A9F7CC24DD24C4
:107E500088248394B5E0AB2EA1E19A2EF3E0BF2EE7
:107E6000A2D0813461F49FD0082FAFD0023811F036
:107E7000013811F484E001C083E08DD089C08234E0
:107E800011F484E103C0853419F485E0A6D080C0E4
:107E9000853579F488D0E82EFF2485D0082F10E0AE
:107EA000102F00270E291F29000F111F8ED06801E7
:107EB0006FC0863521F484E090D080E0DECF843638
:107EC00009F040C070D06FD0082F6DD080E0C81688
:107ED00080E7D80618F4F601B7BEE895C0E0D1E017
:107EE00062D089930C17E1F7F0E0CF16F0E7DF06D8
:107EF00018F0F601B7BEE89568D007B600FCFDCFD4
:107F0000A601A0E0B1E02C9130E011968C91119780
:107F100090E0982F8827822B932B1296FA010C0160
:107F200087BEE89511244E5F5F4FF1E0A038BF0790
:107F300051F7F601A7BEE89507B600FCFDCF97BE46
:107F4000E89526C08437B1F42ED02DD0F82E2BD052
:107F50003CD0F601EF2C8F010F5F1F4F84911BD097
:107F6000EA94F801C1F70894C11CD11CFA94CF0C13
:107F7000D11C0EC0853739F428D08EE10CD085E9AC
:107F80000AD08FE07ACF813511F488E018D01DD067
:107F900080E101D065CF982F8091C00085FFFCCF94
:107FA0009093C60008958091C00087FFFCCF809118
:107FB000C00084FD01C0A8958091C6000895E0E648
:107FC000F0E098E1908380830895EDDF803219F02E
:107FD00088E0F5DFFFCF84E1DECF1F93182FE3DFCA
:107FE0001150E9F7F2DF1F91089580E0E8DFEE27F6
:047FF000FF270994CA
:027FFE00040479
:00000001FF
